:100000000C9434000C943E000C943E000C943E0082
:100010000C943E000C943E000C943E000C943E0068
:100020000C943E000C943E000C943E000C943E0058
:100030000C943E000C943E000C943E000C943E0048
:100040000C943E000C943E000C943E000C943E0038
:100050000C943E000C943E000C943E000C943E0028
:100060000C943E000C943E0011241FBECFEFD8E04C
:10007000DEBFCDBF0E9440000C94AB000C9400008A
:10008000CF93DF93CDB7DEB7C456D1090FB6F8943E
:10009000DEBF0FBECDBF2C9A259A8E010F5F1F4F7A
:1000A00084E6F80111928A95E9F720E030E041E01A
:1000B00084E6E82EF12CF801E20FF31F1C9B1FC011
:1000C0004083C901C296B7010E948300F801E80F7E
:1000D000F91F80818823A9F02D988FE39CE901976F
:1000E000F1F700C000002F5F3F4F243631051CF3AD
:1000F00020E030E0F801E20FF31F1C99E1CF1082FD
:10010000E0CF2D9AEACF97FB072E16F4009407D084
:1001100077FD09D00E94970007FC05D03EF490952A
:1001200081959F4F0895709561957F4F0895AA1B03
:10013000BB1B51E107C0AA1FBB1FA617B70710F0D2
:10014000A61BB70B881F991F5A95A9F78095909504
:0A015000BC01CD010895F894FFCF23
:00000001FF
