:100000000C9434000C9449000C9449000C94490061
:100010000C9449000C9449000C9449000C9449003C
:100020000C9449000C9449000C9449000C9449002C
:100030000C9449000C9449000C9449000C9449001C
:100040000C9449000C9449000C9449000C9449000C
:100050000C9449000C9449000C9449000C944900FC
:100060000C9449000C94490011241FBECFEFD8E036
:10007000DEBFCDBF11E0A0E0B1E0EAEDF0E002C0EC
:1000800005900D92AC30B107D9F70E944B000C944B
:100090006B000C9400008091C100877E8093C100AA
:1000A0008AB18FEF8AB981E087B991E0E0E0F1E0B1
:1000B00098B9819180958BB940982FEF33ED80E30B
:1000C000215030408040E1F700C0000021E0EA30DC
:0A00D000F20771F7EBCFF894FFCFB1
:0C00DA003F065B4F666D7D077F6F0000E6
:00000001FF
