:100000000C9434000C9451000C9451000C94510049
:100010000C9451000C9451000C9451000C9451001C
:100020000C9451000C9451000C9451000C94A211AA
:100030000C9451000C9451000C9451000C945100FC
:100040000C9451000C9451000C9451000C945100EC
:100050000C9451000C9451000C9451000C945100DC
:100060000C9451000C94510011241FBECFEFD8E026
:10007000DEBFCDBF11E0A0E0B1E0E4E6FAE202C0ED
:1000800005900D92AE32B107D9F727E0AEE2B1E0AC
:1000900001C01D92A43BB207E1F70E94D0110C945D
:1000A00030150C940000CF93DF9300D0CDB7DEB7AE
:1000B0008C010E94BF1180E091E09093B307809380
:1000C000B2079093B1078093B0079093AF078093E6
:1000D000AE078AE0F82E1A8219828091AE079091BD
:1000E000AF070E94141290ED980F9A3088F449815E
:1000F0005A81F49E9001F59E300D11242053310950
:10010000A901480F511D87FD5A955A834983E5CFB0
:1001100020E040E050E0BE016F5F7F4FC8010E94C9
:10012000D009D9CFCF93DF9300D0CDB7DEB77C0114
:10013000259A2D980EE011E04AE050E0BE016F5F75
:100140007F4FC7010E94B80A8130B1F78A818F932F
:1001500089818F931F930F930E9452122D9A898148
:100160009A810E94EA042D9884EF91E00E94EA04AB
:100170000F900F900F900F90DFCF0895E0915C01EA
:10018000F0915D018081811103C08FEF9FEF0CC062
:10019000E0915C01F0915D010580F681E02D068023
:1001A000F781E02D82819381909334018093330114
:1001B0000895FF920F931F93CF93DF93EC01F62ED8
:1001C00000913B0110913C0180912E0190912F01F3
:1001D00002960E94150ECF3F8FEFD80789F4FF20BB
:1001E00079F060912E0170912F016E5F7F4F8EE349
:1001F00091E0DF91CF911F910F91FF900C94BC0D76
:10020000C00FD11FE0912E01F0912F01D383C28343
:1002100060912E0170912F01C017D10768F4809171
:100220005A0190915B016E5F7F4FDF91CF911F91DB
:100230000F91FF900C94DD0D80915C0190915D0118
:100240006E5F7F4F0E94DD0D8091330190913401EC
:10025000C817D90720F4D0933401C0933301DF913C
:10026000CF911F910F91FF900895809147018823AE
:1002700009F10FB6F8940F92E0914D01F0914E0103
:10028000C681D781CE0102960E94150E80913D0154
:10029000815080933D0180914701815080934701B7
:1002A0000F900FBE8F89988D0E943110CE010E9451
:1002B0003110DBCF80917001823010F00E94ED1080
:1002C0000E94BD00D2CF3F924F925F926F927F9279
:1002D0008F929F92AF92BF92CF92DF92EF92FF9256
:1002E0000F931F93CF93DF934C01162F372E6A0184
:1002F0005901CA010E94FF0F2C01892B09F4D1C0BA
:1003000086E290E00E94FF0FEC01892B79F0588E75
:100310004F8AC60101973201680E791EBE01675EE1
:100320007F4FE12FF32DCF01089607C0C2010E9435
:100330003110B7C0E817F90749F09F014191DB017F
:100340004D93BD01D9012C912111F4CF18A2043095
:1003500008F003E00E8B6E01B2E0CB0ED11CC6019B
:100360000E94B80DCE010C960E94B80DD987C8879F
:1003700084E090E0801B91099D878C87DB8BCA8B82
:1003800019A21AA21BA21CA21DA2A501B401C3019D
:100390000E94401099838883E114F10419F0F70159
:1003A000D183C0830FB6F8940F9280913D018F5F87
:1003B00080933D0180912E0190912F01892BD1F5E1
:1003C000D0932F01C0932E0180913D01813009F01F
:1003D00041C080E791E00E94AA0D89E791E00E9468
:1003E000AA0D82E891E00E94AA0D8BE891E00E949C
:1003F000AA0D87E691E00E94AA0D8EE591E00E9489
:10040000AA0D81E591E00E94AA0D88E491E00E9486
:10041000AA0D8EE391E00E94AA0D87E691E09093E9
:100420005D0180935C018EE591E090935B01809388
:100430005A0110C08091390181110CC0E0912E0148
:10044000F0912F0196898E89891720F0D0932F0182
:10045000C0932E01809135018F5F809335018E8985
:1004600090913A01981710F480933A01F9E08F9F28
:10047000C0011124B60180599E4F0E94BC0D0F90FF
:100480000FBE80913901882351F0E0912E01F09147
:100490002F0196898E89981710F40E94ED1081E043
:1004A00001C08FEFDF91CF911F910F91FF90EF90DF
:1004B000DF90CF90BF90AF909F908F907F906F9084
:1004C0005F904F903F9008950F931F93CF93DF93CA
:1004D000EC010FB6F8940F92892B21F4C0912E01F4
:1004E000D0912F018E010E5F1F4FC8010E94150E83
:1004F0008C899D89892B21F0CE010C960E94150EC6
:10050000809135018F5F8093350180912E0190910C
:100510002F01C817D90759F4B80188E491E00E9467
:10052000BC0D809147018F5F809347010EC0809181
:100530003D01815080933D018F89988D0E9431103B
:10054000CE010E9431100E94BE000F900FBE80911C
:100550003901882349F080912E0190912F01C8170D
:10056000D90711F40E94ED10DF91CF911F910F91E7
:1005700008950F931F93CF93DF9320912E01309115
:100580002F0182179307B9F10097A9F10FB6F894DC
:100590000F92FC01228533852E53314051F5FC0129
:1005A00024893589F1E021353F0719F1232B09F51D
:1005B000EC018C010E5F1F4FC8010E94150E8E8941
:1005C00090913A01981710F480933A0129E0829FA4
:1005D000C0011124B80180599E4F0E94BC0DE091CA
:1005E0002E01F0912F019E898689981710F00E94A4
:1005F000ED100F900FBEDF91CF911F910F910895D5
:10060000EF92FF921F93CF93DF93EC018A859B8536
:100610008E53914099F48C899D8921E08135920710
:1006200069F0892B59F480913001882349F0BE018B
:10063000645F7F4F81E591E00E94BC0D10E021C016
:10064000E0912E01F0912F0111E09E898689981783
:1006500008F410E07E0182E0E80EF11CC7010E9460
:10066000150E8E8990913A01981710F480933A01F3
:1006700029E0829FC0011124B70180599E4F0E943A
:10068000BC0D812FDF91CF911F91FF90EF900895C6
:10069000EF92FF920F9381E3E82E81E0F82E00E0C5
:1006A00020E030E045E550E068E271E085E391E06C
:1006B0000E946301813091F4F8942FEF3FEF309363
:1006C0003401209333018093390110923C01109240
:1006D0003B010F91FF90EF900C94AC100F91FF90A5
:1006E000EF900895F894109239010C94EC108091D9
:1006F00030018F5F8093300108950FB6F8940F9208
:1007000080913B0190913C010F900FBE0895809124
:100710003B0190913C01089580913D01089500971F
:1007200021F480912E0190912F0149960895CF9246
:10073000DF92EF92FF920F931F93CF93DF938091FD
:10074000300181118CC000913B0110913C010F5F81
:100750001F4F10933C0100933B0101151105B9F4A3
:1007600080915C0190915D0120915A0130915B0173
:1007700030935D0120935C0190935B0180935A015B
:10078000809136018F5F809336010E94BE00809178
:10079000330190913401C0E00817190708F44FC0E5
:1007A000D9E0E0915C01F0915D018081811103C08D
:1007B0008FEF9FEF11C0E0915C01F0915D0105802A
:1007C000F681E02DE680F780D70112968D919C91FD
:1007D00013970817190728F4909334018093330175
:1007E0002EC06701B2E0CB0ED11CC6010E94150ECF
:1007F000F70184899589892B21F0C7010C960E9405
:10080000150ED70156968C9190913A01981710F4D5
:1008100080933A01D89FC0011124B60180599E4FA0
:100820000E94BC0DE0912E01F0912F01D701569648
:100830009C918689981708F4B4CFC1E0B2CFE091BB
:100840002E01F0912F01E689B9E0EB9FF001112410
:10085000E059FE4F8081823040F0C1E006C08091B7
:1008600038018F5F80933801C0E08091370181119A
:10087000C1E08C2FDF91CF911F910F91FF90EF90EE
:10088000DF90CF900895EF92FF920F931F93CF9335
:10089000DF930FB6F8940F928091300181508093CE
:1008A000300180913001882311F080E052C08091A6
:1008B0003D018823D1F3C0E0D0E089E0F82EEE249A
:1008C000E39480915101882351F1E0915601F09118
:1008D0005701C681D781CE010C960E94150E8E015C
:1008E0000E5F1F4FC8010E94150E8E8990913A012C
:1008F000981710F480933A01F89EC0011124B801B2
:1009000080599E4F0E94BC0DE0912E01F0912F0165
:100910009E8986899817A8F2E0923701D2CFCD2B15
:1009200011F00E94BE00C0913801CC2351F0D1E0FB
:100930000E9497038111D0933701C150C9F71092DB
:10094000380180913701882309F4AFCF0E94ED1060
:1009500081E00F900FBEDF91CF911F910F91FF901B
:10096000EF9008950F931F93CF93DF938C01EB01CA
:100970000E94770340913B0150913C01F801208196
:100980003181C9018C0F9D1F4217530720F4821734
:10099000930740F403C08217930730F021E0481713
:1009A000590718F020E001C021E0F801918380830D
:1009B000222329F060E0841B950B0E94D9000E943D
:1009C0004304811102C00E94ED10DF91CF911F916D
:1009D0000F910895CF93DF93EC01892B19F40E94B6
:1009E000ED100AC00E94770360E0CE010E94D9009A
:1009F0000E944304882399F3DF91CF910895809159
:100A00003001882321F081E080933701089510920E
:100A1000370180913A0169E0482F50E0649F9001CE
:100A2000659F300D1124F901E059FE4F908191111D
:100A300002C08150F1CFA181B28112960D90BC917C
:100A4000A02DB283A1832D583E4FA217B30731F4D6
:100A500012962D913C9113973283218399E0949FB4
:100A6000F001959FF00D1124E059FE4F0180F281B5
:100A7000E02D2681378130932F0120932E01809322
:100A80003A0108950F931F93CF93DF93EC010FB6B4
:100A9000F8940F92892B21F4C0912E01D0912F014F
:100AA0008E010E5F1F4FC8010E94150E8C899D8913
:100AB000892B21F0CE010C960E94150EB8018EE311
:100AC00091E00E94BC0D8DA1813009F41DA20F9010
:100AD0000FBE80913901882339F00FB6F8940F9238
:100AE0000E94BE000F900FBE80912E0190912F01A9
:100AF000C817D907C1F480913901882319F00E94E1
:100B0000ED1011C090913E0180913D01981305C0F8
:100B100010922F0110922E0106C0DF91CF911F91EC
:100B20000F910C94FF04DF91CF911F910F910895C5
:100B3000CF93DF93EB0160912E0170912F01645FE1
:100B40007F4F0E94DD0D61E0CE01DF91CF910C94CB
:100B5000D900CF93DF93EA01E0912E01F0912F01AC
:100B600070687587648760912E0170912F01645FB2
:100B70007F4F0E94BC0D61E0CE01DF91CF910C94BC
:100B8000D9000F931F93CF93DF93DC011596ED915E
:100B9000FC911697C681D7818E01045F1F4FC80153
:100BA0000E94150E80913001811114C00A50110964
:100BB000C8010E94150E8E8990913A01981710F481
:100BC00080933A01B9E08B9FC0011124B80180598C
:100BD0009E4F03C0B80181E591E00E94BC0DE091F9
:100BE0002E01F0912F019E898689891720F481E0DA
:100BF0008093370101C080E0DF91CF911F910F9169
:100C000008950F931F93CF93DF937068FC01718356
:100C10006083C681D7810E94150E8E010E5F1F4F23
:100C2000C8010E94150E8E8990913A01981710F410
:100C300080933A01F9E08F9FC0011124B8018059D7
:100C40009E4F0E94BC0DE0912E01F0912F019E89D4
:100C50008689891718F481E080933701DF91CF915D
:100C60001F910F9108950FB6F8940F9220913601BD
:100C7000FC01208320913B0130913C013283218390
:100C80000F900FBE089520913601FC012083209122
:100C90003B0130913C01328321830895CF93DF9350
:100CA0000FB6F8940F9240913B0150913C01DB014B
:100CB0002D913C912F3FBFEF3B07D9F0EC01E9812B
:100CC000FA81A0913601B881BA1719F04E175F0763
:100CD00090F44E1B5F0BFB014217530738F4241BA3
:100CE000350B318320830E94430603C0118210829A
:100CF00002C080E001C081E00F900FBEDF91CF9174
:100D0000089581E0809337010895E0912E01F091DC
:100D10002F0184859585E0912E01F0912F01A091FE
:100D20002E01B0912F0156964C9124E030E0241B07
:100D300031093587248708950F931F93182FCB010E
:100D40000FB6F8940F92E0912E01F0912F0141A17E
:100D500052A163A174A1452B462B472B69F4E09166
:100D60002E01F0912F0121E025A3009729F061E0E9
:100D70000E94D9000E94ED100F900FBE0FB6F8949C
:100D80000F92E0912E01F0912F0161A172A183A138
:100D900094A16115710581059105A9F0E0912E01DD
:100DA000F0912F01112329F011A212A213A214A273
:100DB0000AC08B019C01015011092109310901A3CD
:100DC00012A323A334A3E0912E01F0912F0115A2C9
:100DD0000F900FBE1F910F9108954F925F926F92E7
:100DE0007F928F929F92AF92BF92EF92FF920F935A
:100DF0001F9349015A010FB6F8940F92E0912E010A
:100E0000F0912F0125A1223039F1E0912E01F091CE
:100E10002F0121A132A143A154A12B013C014094F7
:100E2000509460947094D301C20182239323A4232D
:100E3000B52381A392A3A3A3B4A3E0912E01F091C3
:100E40002F0181E085A3E114F10431F061E0C701D5
:100E50000E94D9000E94ED100F900FBE0FB6F894BB
:100E60000F920115110569F0E0912E01F0912F010B
:100E700081A192A1A3A1B4A1F80180839183A2834F
:100E8000B383E0912E01F0912F0185A18230C1F44E
:100E9000E0912E01F0912F0141A152A163A174A113
:100EA000D501C40180959095A095B0958423952394
:100EB000A623B72381A392A3A3A3B4A381E001C077
:100EC00080E0E0912E01F0912F0115A20F900FBE4E
:100ED0001F910F91FF90EF90BF90AF909F908F90D8
:100EE0007F906F905F904F9008950F931F93CF93D3
:100EF000DF93FC010FB6F8940F920115110549F02C
:100F000081A192A1A3A1B4A1E80188839983AA83B6
:100F1000BB8335A182E085A3223089F058F42130CB
:100F200001F581A192A1A3A1B4A1482B592B6A2B51
:100F30007B2B13C0233089F0243069F012C081A1CB
:100F400092A1A3A1B4A10196A11DB11D81A392A359
:100F5000A3A3B4A306C0323049F141A352A363A3B3
:100F600074A3313009F5EF018F010E5F1F4FC801E7
:100F70000E94150E8E8990913A01981710F4809373
:100F80003A0129E0829FC0011124B80180599E4F87
:100F90000E94BC0DE0912E01F0912F019E8986895F
:100FA000891710F40E94ED1081E001C080E00F90DD
:100FB0000FBEDF91CF911F910F910895EF92FF9295
:100FC0000F931F93CF93DF93FC010115110549F097
:100FD00081A192A1A3A1B4A1E80188839983AA83E6
:100FE000BB8335A182E085A3223089F058F42130FB
:100FF00001F581A192A1A3A1B4A1482B592B6A2B81
:101000007B2B13C0233089F0243069F012C081A1FA
:1010100092A1A3A1B4A10196A11DB11D81A392A388
:10102000A3A3B4A306C03230D9F141A352A363A352
:1010300074A3313011F081E034C0EF0180913001B0
:10104000811115C08F010E5F1F4FC8010E94150E40
:101050008E8990913A01981710F480933A01E9E053
:101060008E9FC0011124B80180599E4F05C0BF0159
:10107000645F7F4F81E591E00E94BC0DE0912E01FD
:10108000F0912F019E8986898917A8F6E114F10451
:1010900019F081E0E701888381E08093370101C086
:1010A00080E0DF91CF911F910F91FF90EF90089515
:1010B000EF92FF920F931F93CF93DF93FC0125A133
:1010C00082E085A381A192A1A3A1B4A10196A11D53
:1010D000B11D81A392A3A3A3B4A32130A1F58B01D9
:1010E000EF0180913001811116C07F0122E0E20EF4
:1010F000F11CC7010E94150E8E8990913A01981734
:1011000010F480933A01E9E08E9FC0011124B701E9
:1011100080599E4F05C0BF01645F7F4F81E591E01C
:101120000E94BC0DE0912E01F0912F019E898689CD
:10113000891748F40115110519F081E0F801808341
:1011400081E080933701DF91CF911F910F91FF9044
:10115000EF900895009721F480912E0190912F0136
:101160000FB6F8940F92FC0125A1223019F415A2B4
:1011700081E001C080E00F900FBE08950FB6F89493
:101180000F92FC01928D0F900FBE81E0911180E0D3
:1011900008950F931F93CF93DF93EC01042F1A8DC3
:1011A0004C8D4423B1F150E0011115C08A819B811F
:1011B0000E940B122C8D8A819B81820F911D9B8333
:1011C0008A832C813D818217930718F18881998148
:1011D0009B838A831EC08E819F810E940B128C8DFF
:1011E00090E09195819591092E813F81280F391FBB
:1011F0003F832E83488159812417350730F42C8191
:101200003D81820F931F9F838E83023011F4111151
:1012100011501F5F1A8F80E0DF91CF911F910F91C6
:101220000895FC01CB01448D4423A1F050E02681B8
:101230003781240F351F37832683648175812617F4
:10124000370720F0208131813783268366817781BB
:101250000C940B120895EF92FF921F93CF93DF939C
:10126000EC010FB6F8940F921E8D7C0181E1E80E1F
:10127000F11C11165CF48989882341F0C7010E9492
:10128000C10581110E9481061150F3CF8FEF8E8F1F
:101290000F900FBE0FB6F8940F921D8D7E0188E05F
:1012A000E80EF11C11165CF48885882341F0C70113
:1012B0000E94C10581110E9481061150F3CF8FEF6A
:1012C0008D8F0F900FBEDF91CF911F91FF90EF9008
:1012D0000895CF93DF93EC010FB6F8940F924881F5
:1012E00059818B8D7C8D9A01879F200D311D112492
:1012F0003D832C831A8E5B834A8390E00197789F0D
:101300009001799F300D1124CA01820F931F9F8392
:101310008E838FEF8D8F8E8F61110CC0888588230F
:1013200089F0CE0108960E94C105882359F00E94D9
:10133000ED1008C0CE0108960E94AA0DCE0141967C
:101340000E94AA0D0F900FBE81E0DF91CF9108950A
:101350000F931F93CF93DF93082F162F662321F04F
:10136000869FC001112402C080E090E04F960E9449
:10137000FF0FEC01009771F0111103C0998388836E
:1013800003C04F96998388830B8F1C8F61E0CE0139
:101390000E946909CE01DF91CF911F910F910895AD
:1013A000AF92BF92CF92DF92FF920F931F93CF9392
:1013B000DF9300D000D01F92CDB7DEB78C016B0158
:1013C0005D834C83F22E80E0580198E0A90EB11C99
:1013D0000FB6F8940F92F801228D938D291718F00B
:1013E000F2E0FF1214C04F2DB601C8010E94C908D7
:1013F000F8019189992321F0C80141960E94C10505
:1014000081110E94ED100F900FBE81E050C02C8121
:101410003D81232B19F40F900FBE48C0811104C0E9
:10142000CE0101960E9443060F900FBE0E947703E3
:101430000FB6F8940F92F801858D8F3F09F4158E41
:10144000F801868D8F3F09F4168E0F900FBEBE01F6
:101450006C5F7F4FCE0101960E944E06811121C024
:101460000FB6F8940F92F801928D0F900FBE838DF6
:10147000981311C06C817D81C5010E949805C80137
:101480000E942B090E944304882311F081E0A0CF21
:101490000E94ED10FBCFC8010E942B090E9443045B
:1014A000F5CFC8010E942B090E94430480E00F90F1
:1014B0000F900F900F900F90DF91CF911F910F9190
:1014C000FF90DF90CF90BF90AF900895EF92FF9282
:1014D0001F93CF93DF93EC019A8D8B8D981710F0AB
:1014E0002230E1F47A011E8D422FCE010E94C908FC
:1014F0001F3F81F48989882379F0CE0141960E94AB
:10150000C105882349F0E114F10431F081E0F701CD
:10151000808305C01F5F1E8F81E001C080E0DF91E6
:10152000CF911F91FF90EF900895CF93DF93FC012F
:10153000928D838D9817C0F4868D9F5F928F8F3F19
:1015400079F48189882371F0EB01CF0141960E94E3
:10155000C105882339F0209729F081E0888305C0F0
:101560008F5F868F81E001C080E0DF91CF91089589
:10157000AF92BF92CF92DF92FF920F931F93CF93C0
:10158000DF9300D000D01F92CDB7DEB78C016B0186
:101590005D834C8380E0580191E1A90EB11C0FB628
:1015A000F8940F92F801F28CFF20A9F0B601C8015F
:1015B0000E941109FA94F801F28E8085882339F08F
:1015C000C80108960E94C10581110E94ED100F907C
:1015D0000FBE81E050C02C813D81232B19F40F9068
:1015E0000FBE48C0811104C0CE0101960E9443067F
:1015F0000F900FBE0E9477030FB6F8940F92F80178
:10160000858D8F3F09F4158EF801868D8F3F09F483
:10161000168E0F900FBEBE016C5F7F4FCE010196FC
:101620000E944E0681111CC0C8010E94BE0888237A
:1016300089F06C817D81C5010E949805C8010E94D6
:101640002B090E944304882311F081E0A8CF0E9457
:10165000ED10FBCFC8010E942B090E944304F5CF77
:10166000C8010E942B090E944304C8010E94BE08C1
:10167000882359F380E00F900F900F900F900F90F8
:10168000DF91CF911F910F91FF90DF90CF90BF908E
:10169000AF900895EF92FF920F931F93CF93DF9334
:1016A00000D000D01F92CDB7DEB78C017D836C8354
:1016B00090E0780181E1E80EF11C0FB6F8940F92EA
:1016C000F801828D882381F08150828F8085882364
:1016D00039F0C80108960E94C10581110E94ED10E1
:1016E0000F900FBE81E050C02C813D81232B19F457
:1016F0000F900FBE48C0911104C0CE0101960E9408
:1017000043060F900FBE0E9477030FB6F8940F9216
:10171000F801858D8F3F09F4158EF801868D8F3F76
:1017200009F4168E0F900FBEBE016C5F7F4FCE0185
:1017300001960E944E0681111CC0C8010E94BE087D
:10174000882389F06C817D81C7010E949805C801BA
:101750000E942B090E944304882311F091E0ADCF31
:101760000E94ED10FBCFC8010E942B090E94430488
:10177000F5CFC8010E942B090E944304C8010E94B2
:10178000BE08882359F380E00F900F900F900F90C0
:101790000F90DF91CF911F910F91FF90EF900895DF
:1017A000CF92DF92EF92FF920F931F93CF93DF932D
:1017B00000D000D01F92CDB7DEB78C017B015D83D6
:1017C0004C8380E0680191E1C90ED11C0FB6F894FA
:1017D0000F92F801928D9923B9F0C680D780B70196
:1017E000C8010E941109F801D782C6828189882325
:1017F00039F0C80141960E94C10581110E94ED1087
:101800000F900FBE81E050C02C813D81232B19F435
:101810000F900FBE48C0811104C0CE0101960E94F6
:1018200043060F900FBE0E9477030FB6F8940F92F5
:10183000F801858D8F3F09F4158EF801868D8F3F55
:1018400009F4168E0F900FBEBE016C5F7F4FCE0164
:1018500001960E944E0681111CC0C8010E94BE085C
:10186000882389F06C817D81C6010E949805C8019A
:101870000E942B090E944304882311F081E0A6CF27
:101880000E94ED10FBCFC8010E942B090E94430467
:10189000F5CFC8010E942B090E944304C8010E9491
:1018A000BE08882359F380E00F900F900F900F909F
:1018B0000F90DF91CF911F910F91FF90EF90DF90EC
:1018C000CF900895EF92FF920F931F93CF93DF93E2
:1018D000FC01028D0023E9F07A01EC01158D0E94D4
:1018E000110901500A8F1F3F81F48885882379F000
:1018F000CE0108960E94C105882349F0E114F10445
:1019000031F081E0F701808305C01F5F1D8F81E00A
:1019100001C080E0DF91CF911F910F91FF90EF9078
:1019200008950F931F93CF93DF93FC01228D222301
:1019300049F0EC01068117810E9411091F830E8373
:1019400081E001C080E0DF91CF911F910F91089558
:101950000FB6F8940F92FC01828D0F900FBE089580
:101960000FB6F8940F92FC01228D0F900FBE838D5D
:10197000821B0895FC01828D08950C943110FC01A6
:10198000928D81E0911180E00895FC01928D81E0BB
:10199000238D291380E00895CF93DF93EC01F89411
:1019A0000FB6F8940F928A8D9B8D0F900FBE8913FE
:1019B0000FC04115510549F0BE01685F7F4FCA0154
:1019C0000E94AB0E78948CEF1BC0789480E018C016
:1019D0007894F8948A8D891788F440E0CE010E94AB
:1019E000C9088989811102C081E009C0CE014196F0
:1019F0000E94DA0F8823C1F38BEF01C080E0789456
:101A0000DF91CF910895CF93DF93EC01FB01F89420
:101A10008A8D81110FC04115510549F0BE016F5EDD
:101A20007F4FCA010E94AB0E78948CEF30C078943F
:101A300080E02DC07894F8948A8D882331F14C8D04
:101A400050E02E813F81240F351F3F832E838C81F0
:101A50009D812817390720F0888199819F838E8383
:101A60009A8D91509A8F6E817F81CF010E940B12C7
:101A70008885811102C081E009C0CE0108960E94CC
:101A8000DA0F8823C1F38BEF01C080E07894DF91F7
:101A9000CF9108950F931F93CF938C01C42FFC0116
:101AA000928D838D981710F04C2F12C040E0C80122
:101AB0000E94C908C111F8CFF8018189882339F043
:101AC000C80141960E94DA0F41E0811101C040E057
:101AD000842FCF911F910F9108950F931F93CF9350
:101AE000DF93FC01828D882379F1248D30E0A6817B
:101AF000B781A20FB31FB783A68384819581A817EE
:101B0000B90720F080819181978386838A01CB0178
:101B1000EF01428D4150428F66817781A9010E9479
:101B20000B12F8018081882311F081E00EC08885B6
:101B30008823D9F3CE0108960E94DA0F8823A9F3EF
:101B400081E0F801808301C080E0DF91CF911F9197
:101B50000F910895FC010396928381832FEF3FEF4D
:101B600034832383968385839087878310820895A7
:101B7000FC01118610860895CF93DF939C01FB0131
:101B8000DC011196CD91DC911297D383C2838C81B5
:101B90009D81958384838C819D81DC0113967C9348
:101BA0006E9312977D836C8331872087F901808142
:101BB0008F5F8083DF91CF9108950F931F93CF9311
:101BC000DF938C01FB01808191818F3F2FEF920782
:101BD00021F4E801AF81B8850EC0D80113961296A2
:101BE0002D913C911397E9014881598184179507FC
:101BF00010F0D901F4CF12968D919C911397938395
:101C00008283EC01FD83EC83B583A4831396FC935C
:101C1000EE93129711870087F80180818F5F808390
:101C2000DF91CF911F910F910895CF93DF93FC0126
:101C3000A085B1858281938124813581EC013D832A
:101C40002C83C481D5819B838A8311968D919C912D
:101C50001297E817F90721F41296DC93CE931197A7
:101C6000118610868C9181508C938C91DF91CF914D
:101C70000895CF92DF92EF92FF921F93CF93DF935D
:101C80006C01162FF42E8AE190E00E94FF0FEC0108
:101C9000892B09F457C08091940190919501892B6B
:101CA00021F5D0939501C09394018CEB91E00E94B3
:101CB000AA0D85EC91E00E94AA0D83EB91E00E94B1
:101CC000AA0D8AEA91E00E94AA0D8DE991E00E9496
:101CD000AA0D83EB91E09093A9018093A8018AEA71
:101CE00091E09093A7018093A601111111E0198E44
:101CF000188E1E8BFF8AFE01C192D1927F01CF0107
:101D00000E94B80DCE010C960E94B80DD987C887E5
:101D1000DB8BCA8B82E090E0811B91099D878C87C9
:101D20008E8990919C01981710F480939C01F9E0A2
:101D30008F9FC0011124B70184549E4F0E94BC0D97
:101D400081E001C08FEFDF91CF911F91FF90EF9065
:101D5000DF90CF9008950F931F93CF93DF938B0164
:101D6000C0919A01D0919B01C80FD91F8091940115
:101D70009091950102960E94150EE0919401F091C8
:101D80009501D383C28380919A0190919B01BF01F9
:101D90006E5F7F4FC817D90728F48091A6019091F4
:101DA000A70104C08091A8019091A9010E94DD0DB6
:101DB0000115110569F06091940170919501645FBE
:101DC0007F4FC801DF91CF911F910F910C94DD0DD2
:101DD000DF91CF911F910F910895FF920F931F9361
:101DE000CF93DF9399E0F92E80919D01882311F123
:101DF000F894E091A201F091A301C681D781CE01B0
:101E00000C960E94150E78948E010E5F1F4FC8012C
:101E10000E94150E8E8990919C01981710F4809362
:101E20009C01F89EC0011124B80184549E4F0E9469
:101E3000BC0DDACF0E947D03209198013091990169
:101E4000821B930B909397018093960189E0F82E63
:101E5000209196013091970180919A0190919B0178
:101E60002115310509F454C0019690939B0180938C
:101E70009A01215031093093970120939601892BC3
:101E800009F03EC08091A8019091A9012091A6017E
:101E90003091A7013093A9012093A8019093A70145
:101EA0008093A6012DC00580F681E02DC681D781E3
:101EB0002A813B8180919A0190919B01821793071F
:101EC00038F2F8948E010E5F1F4FC8010E94150E64
:101ED0008C899D89892B21F0CE010C960E94150ECC
:101EE00078948E8990919C01981710F480939C01AE
:101EF000F89EC0011124B80184549E4F0E94BC0D6D
:101F0000E091A801F091A90180818111CCCFA0CFEF
:101F1000909399018093980180919C0169E0482FEA
:101F200050E0649F9001659F300D1124F901E45445
:101F3000FE4F908191110CC0811108C010929C013C
:101F4000DF91CF911F910F91FF9008958150E7CFBE
:101F500080939C01A181B28112960D90BC91A02D1D
:101F6000B283A18321543E4FA217B30731F41296D6
:101F70008D919C9113979283818389E0849FF001D6
:101F8000859FF00D1124E454FE4F0180F281E02D75
:101F9000868197819093950180939401DC01ED9166
:101FA000FC91119757966C91DF91CF911F910F91F2
:101FB000FF9009940F931F93CF93DF93DC01159645
:101FC000ED91FC911697C681D7818E01045F1F4F5A
:101FD000C8010E94150EB8018DE991E00E94BC0D68
:101FE000E0919401F091950181E02E89968929175D
:101FF00008F480E0DF91CF911F910F910895CF9366
:10200000DF93EC010E9477038091CE019091CF0184
:10201000892B31F483ED91E09093CF018093CE0131
:102020002091D0013091D101C9018C0F9D1F8B3DB2
:1020300045E0940770F42817390758F4C091CE0191
:10204000D091CF01C20FD31F9093D1018093D001C3
:1020500002C0C0E0D0E00E944304CE01DF91CF91E6
:10206000089508951092D1011092D0010895209101
:10207000D0013091D1018BED95E0821B930B089537
:1020800031E1FC013083319722E220833197A3E3D1
:10209000A083319760833197708331971082319795
:1020A00060E8608331971082319762E060833197F6
:1020B00063E06083319764E06083319765E060831B
:1020C000319766E06083319767E06083319768E01D
:1020D0006083319769E06083319760E16083319775
:1020E0003083319732E13083319733E13083319758
:1020F00034E13083319735E13083319736E13083F5
:10210000319737E13083319738E13083319739E1C6
:102110003083319730E23083319731E23083319729
:102120002083319723E22083319740833197508376
:10213000319726E22083319727E22083319728E2E6
:102140002083319729E22083319720E32083319740
:1021500021E320838697089589EF90E0909389008A
:1021600080938800E0E8F0E080818C7F80838BE0C2
:1021700080938100EFE6F0E0808182608083A0910F
:102180002E01B0912F01CD91CDBFDD91DEBFFF912A
:10219000EF91DF91CF91BF91AF919F918F917F91FF
:1021A0006F915F914F913F912F911F910F91FF90F0
:1021B000EF90DF90CF90BF90AF909F908F907F90E7
:1021C0006F905F904F903F902F901F900F900FBE99
:1021D0000F90089581E0089508950F920FB6F89436
:1021E0000F921F9211242F923F924F925F926F9203
:1021F0007F928F929F92AF92BF92CF92DF92EF9297
:10220000FF920F931F932F933F934F935F936F937F
:102210007F938F939F93AF93BF93CF93DF93EF936E
:10222000FF93A0912E01B0912F010DB60D920EB625
:102230000D920E94FF04A0912E01B0912F01CD912B
:10224000CDBFDD91DEBFFF91EF91DF91CF91BF91C7
:10225000AF919F918F917F916F915F914F913F913E
:102260002F911F910F91FF90EF90DF90CF90BF9033
:10227000AF909F908F907F906F905F904F903F9026
:102280002F901F900F900FBE0F9008950F920FB6D2
:10229000F8940F921F9211242F923F924F925F92C7
:1022A0006F927F928F929F92AF92BF92CF92DF9266
:1022B000EF92FF920F931F932F933F934F935F9350
:1022C0006F937F938F939F93AF93BF93CF93DF933E
:1022D000EF93FF93A0912E01B0912F010DB60D92B7
:1022E0000EB60D920E94970381110E94FF04A091E7
:1022F0002E01B0912F01CD91CDBFDD91DEBFFF91B9
:10230000EF91DF91CF91BF91AF919F918F917F918D
:102310006F915F914F913F912F911F910F91FF907E
:10232000EF90DF90CF90BF90AF909F908F907F9075
:102330006F905F904F903F902F901F900F900FBE27
:102340000F9008950E9446111895CF93C82F809141
:10235000C00085FD03C00E94ED10F9CFC093C600F8
:1023600080E090E0CF9108958091C00087FD03C088
:102370000E94ED10F9CF8091C60090E00895109270
:10238000C50087E68093C400E0ECF0E080818D7F9B
:10239000808386E08093C20088E18093C100089525
:1023A000CF92DF92EF92FF920F93CF93DF9300D003
:1023B00000D0CDB7DEB740E062E084E60E94A80915
:1023C0006C01CE0103967C0102E0960145E550E0E8
:1023D0006BE171E082E990E00E946301CE01019619
:1023E0007C0101E0960145E550E061E271E083E5A2
:1023F00090E00E9463010E94480380E090E00F900B
:102400000F900F900F90DF91CF910F91FF90EF9071
:10241000DF90CF900895FB01DC0102C001900D9286
:1024200041505040D8F70895CF93DF93EC012B81B2
:1024300020FF33C026FF0AC02F7B2B838E819F8114
:1024400001969F838E838A8190E029C022FF0FC06E
:10245000E881F9818081082E000C990B009719F40E
:1024600020622B831AC03196F983E8830EC0EA8577
:10247000FB85099597FF09C02B81019611F080E239
:1024800001C080E1822B8B8308C02E813F812F5FAA
:102490003F4F3F832E83992702C08FEF9FEFDF913D
:1024A000CF910895A0E0B0E0E8E5F2E10C940915C1
:1024B000AE014B5F5F4FFA0161917191AF01809165
:1024C000B0079091B1070E946812E2E00C942515C4
:1024D000ABE0B0E0EEE6F2E10C94F9146C017B01A4
:1024E0008A01FC0117821682838181FFCCC1CE0153
:1024F00001963C01F6019381F70193FD859193FFCD
:1025000081917F01882309F4BAC1853239F493FDA2
:10251000859193FF81917F01853229F4B60190E086
:102520000E945F14E7CF912C212C312CFFE1F31591
:10253000D8F08B3279F038F4803279F08332A1F41C
:10254000232D20611DC08D3261F0803369F4232D6D
:10255000216016C0832D8260382EE32DE4603E2E6C
:102560002AC0F32DF8601DC037FC2DC020ED280FC8
:102570002A3040F08E32B9F436FC81C1232D20641C
:10258000322E19C036FE06C08AE0989E200D112416
:10259000922E11C0EAE02E9E200D1124222EF32D42
:1025A000F0623F2E08C08C3621F4832D8068382ECF
:1025B00002C0883641F4F70193FD859193FF819124
:1025C0007F018111B3CF982F9F7D9554933028F4CC
:1025D0000C5F1F4F9FE399830DC0833631F0833723
:1025E00071F0833509F059C021C0F80180818983D9
:1025F0000E5F1F4F88248394912C530113C0280130
:10260000F2E04F0E511CF801A080B18036FE03C0ED
:10261000692D70E002C06FEF7FEFC5010E94541476
:102620004C018201F32DFF773F2E16C0280122E0D6
:10263000420E511CF801A080B18036FE03C0692D06
:1026400070E002C06FEF7FEFC5010E9449144C019A
:10265000F32DF0683F2E820133FC1BC0822D90E0E9
:1026600088169906B0F4B60180E290E00E945F14EB
:102670002A94F4CFF50137FC859137FE81915F01F3
:10268000B60190E00E945F1421102A9421E0821A82
:1026900091088114910471F7E8C0843611F08936ED
:1026A00041F5F80137FE07C0608171818281938115
:1026B0000C5F1F4F08C060817181072E000C880BD2
:1026C000990B0E5F1F4FF32DFF763F2E97FF09C02A
:1026D00090958095709561957F4F8F4F9F4FF068D3
:1026E0003F2E2AE030E0A3010E949B14882E86181A
:1026F00045C0853731F4232D2F7EB22E2AE030E0FD
:1027000025C0932D997FB92E8F36C1F018F48835E6
:1027100079F0B5C0803719F0883721F0B0C0E92FC3
:10272000E061BE2EB4FE0DC0FB2DF460BF2E09C0CB
:1027300034FE0AC0292F2660B22E06C028E030E001
:1027400005C020E130E002C020E132E0F801B7FE30
:1027500007C060817181828193810C5F1F4F06C029
:102760006081718180E090E00E5F1F4FA3010E94A5
:102770009B14882E8618FB2DFF773F2E36FE0DC04A
:10278000232D2E7FA22E891458F434FE0BC032FC68
:1027900009C0832D8E7EA82E05C0B82CA32C03C0A3
:1027A000B82C01C0B92CA4FE0FC0FE01E80DF11D2C
:1027B0008081803321F49A2D997EA92E09C0A2FE32
:1027C00006C0B394B39404C08A2D867809F0B394FC
:1027D000A3FC11C0A0FE06C0B21488F4280C922CF1
:1027E0009B180EC0B21460F4B60180E290E00E9423
:1027F0005F14B394F7CFB21418F42B1802C0982CBE
:10280000212CA4FE10C0B60180E390E00E945F146A
:10281000A2FE17C0A1FC03C088E790E002C088E5D3
:1028200090E0B6010CC08A2D867859F0A1FE02C056
:102830008BE201C080E2A7FC8DE2B60190E00E942D
:102840005F14891438F4B60180E390E00E945F14AD
:102850009A94F7CF8A94F301E80DF11D8081B601B7
:1028600090E00E945F148110F5CF222009F442CE3F
:10287000B60180E290E00E945F142A94F6CFF60140
:102880008681978102C08FEF9FEF2B96E2E10C9437
:102890001515FC010590615070400110D8F7809526
:1028A00090958E0F9F1F0895FC016150704001901C
:1028B0000110D8F7809590958E0F9F1F08950F9364
:1028C0001F93CF93DF93FB01238121FD03C08FEF83
:1028D0009FEF2CC022FF16C046815781248135818D
:1028E0004217530744F4A081B1819D012F5F3F4FF0
:1028F000318320838C93268137812F5F3F4F37832D
:10290000268314C08B01EC01FB010084F185E02DCE
:102910000995892BE1F6D80116968D919C91179710
:10292000019617969C938E931697CE01DF91CF91C7
:102930001F910F910895FA01AA27283051F12031F3
:1029400081F1E8946F936E7F6E5F7F4F8F4F9F4F43
:10295000AF4FB1E03ED0B4E03CD0670F781F891F85
:102960009A1FA11D680F791F8A1F911DA11D6A0F53
:10297000711D811D911DA11D20D009F468943F9106
:102980002AE0269F11243019305D3193DEF6CF0105
:102990000895462F4770405D4193B3E00FD0C9F7CB
:1029A000F6CF462F4F70405D4A3318F0495D31FD38
:1029B0004052419302D0A9F7EACFB4E0A69597958B
:1029C000879577956795BA95C9F700976105710561
:1029D00008959B01AC010A2E0694579547953795AB
:1029E0002795BA95C9F7620F731F841F951FA01D05
:1029F00008952F923F924F925F926F927F928F92A3
:102A00009F92AF92BF92CF92DF92EF92FF920F937D
:102A10001F93CF93DF93CDB7DEB7CA1BDB0B0FB687
:102A2000F894DEBF0FBECDBF09942A883988488844
:102A30005F846E847D848C849B84AA84B984C884DA
:102A4000DF80EE80FD800C811B81AA81B981CE0FD1
:102A5000D11D0FB6F894DEBF0FBECDBFED010895B6
:042A6000F894FFCF18
:102A64000000000300000000A511B411000052652D
:102A740063656976653A25640D0A00626C696E6B5C
:0E2A84000073657269616C0049444C450000A6
:00000001FF
