:100000000C9434000C9446000C9446000C9446006A
:100010000C9446000C9446000C9446000C94460048
:100020000C9446000C9446000C9446000C94460038
:100030000C9446000C9446000C9446000C94460028
:100040000C9446000C9446000C9446000C94460018
:100050000C9446000C9446000C9446000C94460008
:100060000C9446000C94460011241FBECFEFD8E03C
:10007000DEBFCDBF21E0A0E0B1E001C01D92AE30F7
:10008000B207E1F70E9460000C94A7000C940000F6
:1000900080E480937C0081E080937E00EAE7F0E0DA
:1000A00087E0808380818068808308951816190610
:1000B00034F425E02A95F1F700000197D1F708956F
:1000C000539A80E480937C0081E080937E0087E0F7
:1000D00080937A0080917A00806880937A0021E092
:1000E00030E05B988CE291E045E04A95F1F7000042
:1000F0000197D1F780917A00806480937A00809193
:100100007A0086FDFCCF80917800909179000024E0
:10011000880F991F001C880F991F001C892F902D94
:10012000A90102C0440F551F8A95E2F7CA01813325
:1001300055E7950710F080E395E75B9A009789F201
:1001400045E04A95F1F700000197D1F7CACFF8943E
:02015000FFCFDF
:00000001FF
