:100000000C9434000C9451000C9451000C94510049
:100010000C9451000C9451000C9451000C9451001C
:100020000C9451000C9451000C9451000C949911B3
:100030000C9451000C9451000C9451000C945100FC
:100040000C9451000C9451000C9451000C945100EC
:100050000C9451000C9451000C9451000C945100DC
:100060000C9451000C94510011241FBECFEFD8E026
:10007000DEBFCDBF11E0A0E0B1E0EAE6F4E202C0ED
:1000800005900D92A432B107D9F728E0A4E2B1E0BF
:1000900001C01D92A037B207E1F70E94C7110C946E
:1000A00033120C9400008091C100877E8093C100C0
:1000B0008AB18FEF8AB911E01BB9C7E0D0E08BB1EC
:1000C000880F8BB982E390E00E94E1042197B9F791
:1000D000C7E0D0E08BB186958BB982E390E00E94B7
:1000E000E1042197B9F7E8CF2C9A259AC1E0D0E036
:1000F00005E610E08091A4079091A507FC01EE0FA2
:10010000FF1FEA55F84F1C9B03C0D183C08302C078
:10011000118210820196B8010E940212FC01EE0FBA
:10012000FF1FEA55F84F80819181892B11F02D989E
:1001300001C02D9A8AE090E00E94E1048091A4071A
:100140009091A5070196853691052CF49093A5070B
:100150008093A40704C01092A5071092A4078AE018
:1001600090E00E94E104C6CF0895E0915201F09121
:1001700053018081811103C08FEF9FEF0CC0E0918C
:100180005201F09153010580F681E02D0680F78140
:10019000E02D8281938190932A0180932901089513
:1001A000FF920F931F93CF93DF93EC01F62E0091F4
:1001B0003101109132018091240190912501029624
:1001C0000E940C0ECF3F8FEFD80789F4FF2079F003
:1001D00060912401709125016E5F7F4F84E391E06F
:1001E000DF91CF911F910F91FF900C94B30DC00F31
:1001F000D11FE0912401F0912501D383C283609146
:10020000240170912501C017D10768F48091500135
:10021000909151016E5F7F4FDF91CF911F910F91B0
:10022000FF900C94D40D80915201909153016E5F18
:100230007F4F0E94D40D8091290190912A01C81707
:10024000D90720F4D0932A01C0932901DF91CF91DF
:100250001F910F91FF90089580913D01882309F12E
:100260000FB6F8940F92E0914301F0914401C681DA
:10027000D781CE0102960E940C0E809133018150ED
:100280008093330180913D01815080933D010F9017
:100290000FBE8F89988D0E942810CE010E942810D1
:1002A000DBCF80916601823010F00E94E4100E9442
:1002B000B400D2CF3F924F925F926F927F928F9213
:1002C0009F92AF92BF92CF92DF92EF92FF920F93E5
:1002D0001F93CF93DF934C01162F372E6A015901DC
:1002E000CA010E94F60F2C01892B09F4D1C086E2C5
:1002F00090E00E94F60FEC01892B79F0588E4F8A1E
:10030000C60101973201680E791EBE01675E7F4FFC
:10031000E12FF32DCF01089607C0C2010E942810DB
:10032000B7C0E817F90749F09F014191DB014D93F0
:10033000BD01D9012C912111F4CF18A2043008F08D
:1003400003E00E8B6E01B2E0CB0ED11CC6010E9401
:10035000AF0DCE010C960E94AF0DD987C88784E0FF
:1003600090E0801B91099D878C87DB8BCA8B19A23B
:100370001AA21BA21CA21DA2A501B401C3010E94C6
:10038000371099838883E114F10419F0F701D183C0
:10039000C0830FB6F8940F92809133018F5F8093E2
:1003A00033018091240190912501892BD1F5D093BF
:1003B0002501C093240180913301813009F041C0AF
:1003C00086E691E00E94A10D8FE691E00E94A10DCA
:1003D00088E791E00E94A10D81E891E00E94A10DC3
:1003E0008DE591E00E94A10D84E591E00E94A10DB0
:1003F00087E491E00E94A10D8EE391E00E94A10D9F
:1004000084E391E00E94A10D8DE591E0909353016A
:100410008093520184E591E09093510180935001C3
:1004200010C080912F0181110CC0E0912401F09146
:10043000250196898E89891720F0D0932501C093D4
:10044000240180912B018F5F80932B018E899091E5
:100450003001981710F480933001F9E08F9FC001AC
:100460001124B6018A599E4F0E94B30D0F900FBE02
:1004700080912F01882351F0E0912401F091250112
:1004800096898E89981710F40E94E41081E001C0CB
:100490008FEFDF91CF911F910F91FF90EF90DF9041
:1004A000CF90BF90AF909F908F907F906F905F9014
:1004B0004F903F9008950F931F93CF93DF93EC01DC
:1004C0000FB6F8940F92892B21F4C0912401D0919A
:1004D00025018E010E5F1F4FC8010E940C0E8C89F2
:1004E0009D89892B21F0CE010C960E940C0E8091E3
:1004F0002B018F5F80932B01809124019091250126
:10050000C817D90759F4B8018EE391E00E94B30DE2
:1005100080913D018F5F80933D010EC0809133013A
:100520008150809333018F89988D0E942810CE01CD
:100530000E9428100E94B5000F900FBE80912F01DD
:10054000882349F08091240190912501C817D9078B
:1005500011F40E94E410DF91CF911F910F91089543
:100560000F931F93CF93DF932091240130912501A6
:1005700082179307B9F10097A9F10FB6F8940F927B
:10058000FC01228533852453314051F5FC01248937
:100590003589F1E027343F0719F1232B09F5EC01E8
:1005A0008C010E5F1F4FC8010E940C0E8E89909126
:1005B0003001981710F48093300129E0829FC00128
:1005C0001124B8018A599E4F0E94B30DE091240175
:1005D000F09125019E898689981710F00E94E410F9
:1005E0000F900FBEDF91CF911F910F910895EF9261
:1005F000FF921F93CF93DF93EC018A859B858453F1
:10060000914099F48C899D8921E08734920769F0A3
:10061000892B59F480912601882349F0BE01645F3B
:100620007F4F87E491E00E94B30D10E021C0E0917C
:100630002401F091250111E09E898689981708F41C
:1006400010E07E0182E0E80EF11CC7010E940C0E52
:100650008E8990913001981710F48093300129E031
:10066000829FC0011124B7018A599E4F0E94B30D89
:10067000812FDF91CF911F91FF90EF900895EF921E
:10068000FF920F9387E2E82E81E0F82E00E020E051
:1006900030E045E550E06FE171E08CE291E00E94CE
:1006A0005A01813091F4F8942FEF3FEF30932A01F3
:1006B0002093290180932F01109232011092310171
:1006C0000F91FF90EF900C94A3100F91FF90EF907B
:1006D0000895F89410922F010C94E3108091260154
:1006E0008F5F8093260108950FB6F8940F92809142
:1006F0003101909132010F900FBE08958091310128
:10070000909132010895809133010895009721F46A
:10071000809124019091250149960895CF92DF920E
:10072000EF92FF920F931F93CF93DF938091260157
:1007300081118CC000913101109132010F5F1F4F68
:10074000109332010093310101151105B9F4809124
:1007500052019091530120915001309151013093F9
:100760005301209352019093510180935001809145
:100770002C018F5F80932C010E94B500809129018C
:1007800090912A01C0E00817190708F44FC0D9E07A
:10079000E0915201F09153018081811103C08FEFEC
:1007A0009FEF11C0E0915201F09153010580F68155
:1007B000E02DE680F780D70112968D919C911397DA
:1007C0000817190728F490932A01809329012EC055
:1007D0006701B2E0CB0ED11CC6010E940C0EF701DE
:1007E00084899589892B21F0C7010C960E940C0EF3
:1007F000D70156968C9190913001981710F4809300
:100800003001D89FC0011124B6018A599E4F0E9421
:10081000B30DE0912401F0912501D70156969C91EA
:100820008689981708F4B4CFC1E0B2CFE0912401D3
:10083000F0912501E689B9E0EB9FF0011124EA5916
:10084000FE4F8081823040F0C1E006C080912E01D1
:100850008F5F80932E01C0E080912D018111C1E056
:100860008C2FDF91CF911F910F91FF90EF90DF9030
:10087000CF900895EF92FF920F931F93CF93DF9342
:100880000FB6F8940F928091260181508093260133
:1008900080912601882311F080E052C080913301BD
:1008A0008823D1F3C0E0D0E089E0F82EEE24E39471
:1008B00080914701882351F1E0914C01F0914D0165
:1008C000C681D781CE010C960E940C0E8E010E5F60
:1008D0001F4FC8010E940C0E8E899091300198170D
:1008E00010F480933001F89EC0011124B8018A5998
:1008F0009E4F0E94B30DE0912401F09125019E8945
:1009000086899817A8F2E0922D01D2CFCD2B11F055
:100910000E94B500C0912E01CC2351F0D1E00E947D
:100920008E038111D0932D01C150C9F710922E0171
:1009300080912D01882309F4AFCF0E94E41081E05B
:100940000F900FBEDF91CF911F910F91FF90EF900D
:1009500008950F931F93CF93DF938C01EB010E94B7
:100960006E034091310150913201F80120813181B3
:10097000C9018C0F9D1F4217530720F4821793075C
:1009800040F403C08217930730F021E0481759075D
:1009900018F020E001C021E0F80191838083222338
:1009A00029F060E0841B950B0E94D0000E943A045D
:1009B000811102C00E94E410DF91CF911F910F912D
:1009C0000895CF93DF93EC01892B19F40E94E41072
:1009D0000AC00E946E0360E0CE010E94D0000E9417
:1009E0003A04882399F3DF91CF91089580912601ED
:1009F000882321F081E080932D01089510922D012C
:100A00008091300169E0482F50E0649F9001659F1C
:100A1000300D1124F901EA59FE4F9081911102C065
:100A20008150F1CFA181B28112960D90BC91A02D81
:100A3000B283A18327593E4FA217B30731F4129610
:100A40002D913C9113973283218399E0949FF0017B
:100A5000959FF00D1124EA59FE4F0180F281E02D9F
:100A60002681378130932501209324018093300122
:100A700008950F931F93CF93DF93EC010FB6F89473
:100A80000F92892B21F4C0912401D09125018E0170
:100A90000E5F1F4FC8010E940C0E8C899D89892B07
:100AA00021F0CE010C960E940C0EB80184E391E077
:100AB0000E94B30D8DA1813009F41DA20F900FBECD
:100AC00080912F01882339F00FB6F8940F920E947D
:100AD000B5000F900FBE8091240190912501C81799
:100AE000D907C1F480912F01882319F00E94E410E6
:100AF00011C09091340180913301981305C0109278
:100B000025011092240106C0DF91CF911F910F9112
:100B10000C94F604DF91CF911F910F910895CF931C
:100B2000DF93EB016091240170912501645F7F4F99
:100B30000E94D40D61E0CE01DF91CF910C94D000E2
:100B4000CF93DF93EA01E0912401F09125017068D1
:100B5000758764876091240170912501645F7F4FE0
:100B60000E94B30D61E0CE01DF91CF910C94D000D3
:100B70000F931F93CF93DF93DC011596ED91FC91BA
:100B80001697C681D7818E01045F1F4FC8010E944E
:100B90000C0E80912601811114C00A501109C80160
:100BA0000E940C0E8E8990913001981710F480935A
:100BB0003001B9E08B9FC0011124B8018A599E4FC2
:100BC00003C0B80187E491E00E94B30DE0912401D5
:100BD000F09125019E898689891720F481E0809310
:100BE0002D0101C080E0DF91CF911F910F910895F9
:100BF0000F931F93CF93DF937068FC017183608321
:100C0000C681D7810E940C0E8E010E5F1F4FC80156
:100C10000E940C0E8E8990913001981710F48093E9
:100C20003001F9E08F9FC0011124B8018A599E4F0D
:100C30000E94B30DE0912401F09125019E898689DF
:100C4000891718F481E080932D01DF91CF911F91D6
:100C50000F9108950FB6F8940F9220912C01FC018A
:100C600020832091310130913201328321830F9012
:100C70000FBE089520912C01FC01208320913101A9
:100C800030913201328321830895CF93DF930FB6E1
:100C9000F8940F924091310150913201DB012D9176
:100CA0003C912F3FBFEF3B07D9F0EC01E981FA817E
:100CB000A0912C01B881BA1719F04E175F0790F474
:100CC0004E1B5F0BFB014217530738F4241B350BF7
:100CD000318320830E943A0603C01182108202C031
:100CE00080E001C081E00F900FBEDF91CF910895A9
:100CF00081E080932D010895E0912401F091250178
:100D000084859585E0912401F0912501A09124012D
:100D1000B091250156964C9124E030E0241B310916
:100D20003587248708950F931F93182FCB010FB693
:100D3000F8940F92E0912401F091250141A152A174
:100D400063A174A1452B462B472B69F4E091240144
:100D5000F091250121E025A3009729F061E00E9490
:100D6000D0000E94E4100F900FBE0FB6F8940F92BF
:100D7000E0912401F091250161A172A183A194A1C8
:100D80006115710581059105A9F0E0912401F091AB
:100D90002501112329F011A212A213A214A20AC044
:100DA0008B019C01015011092109310901A312A3F2
:100DB00023A334A3E0912401F091250115A20F9003
:100DC0000FBE1F910F9108954F925F926F927F9285
:100DD0008F929F92AF92BF92EF92FF920F931F93C9
:100DE00049015A010FB6F8940F92E0912401F09155
:100DF000250125A1223039F1E0912401F09125014E
:100E000021A132A143A154A12B013C014094509453
:100E100060947094D301C20182239323A423B52349
:100E200081A392A3A3A3B4A3E0912401F09125018F
:100E300081E085A3E114F10431F061E0C7010E9473
:100E4000D0000E94E4100F900FBE0FB6F8940F92DE
:100E50000115110569F0E0912401F091250181A1AE
:100E600092A1A3A1B4A1F80180839183A283B3834B
:100E7000E0912401F091250185A18230C1F4E09137
:100E80002401F091250141A152A163A174A1D501D2
:100E9000C40180959095A095B09584239523A623B1
:100EA000B72381A392A3A3A3B4A381E001C080E0F0
:100EB000E0912401F091250115A20F900FBE1F9122
:100EC0000F91FF90EF90BF90AF909F908F907F9089
:100ED0006F905F904F9008950F931F93CF93DF9380
:100EE000FC010FB6F8940F920115110549F081A18C
:100EF00092A1A3A1B4A1E80188839983AA83BB83AB
:100F000035A182E085A3223089F058F4213001F523
:100F100081A192A1A3A1B4A1482B592B6A2B7B2BB1
:100F200013C0233089F0243069F012C081A192A14E
:100F3000A3A1B4A10196A11DB11D81A392A3A3A356
:100F4000B4A306C0323049F141A352A363A374A3F2
:100F5000313009F5EF018F010E5F1F4FC8010E946C
:100F60000C0E8E8990913001981710F48093300107
:100F700029E0829FC0011124B8018A599E4F0E9426
:100F8000B30DE0912401F09125019E89868989178E
:100F900010F40E94E41081E001C080E00F900FBEC9
:100FA000DF91CF911F910F910895EF92FF920F93D0
:100FB0001F93CF93DF93FC010115110549F081A127
:100FC00092A1A3A1B4A1E80188839983AA83BB83DA
:100FD00035A182E085A3223089F058F4213001F553
:100FE00081A192A1A3A1B4A1482B592B6A2B7B2BE1
:100FF00013C0233089F0243069F012C081A192A17E
:10100000A3A1B4A10196A11DB11D81A392A3A3A385
:10101000B4A306C03230D9F141A352A363A374A391
:10102000313011F081E034C0EF018091260181114F
:1010300015C08F010E5F1F4FC8010E940C0E8E89D4
:1010400090913001981710F480933001E9E08E9F61
:10105000C0011124B8018A599E4F05C0BF01645FC9
:101060007F4F87E491E00E94B30DE0912401F0915D
:1010700025019E8986898917A8F6E114F10419F0E3
:1010800081E0E701888381E080932D0101C080E049
:10109000DF91CF911F910F91FF90EF900895EF9204
:1010A000FF920F931F93CF93DF93FC0125A182E062
:1010B00085A381A192A1A3A1B4A10196A11DB11DF7
:1010C00081A392A3A3A3B4A32130A1F58B01EF01C7
:1010D00080912601811116C07F0122E0E20EF11CF1
:1010E000C7010E940C0E8E8990913001981710F460
:1010F00080933001E9E08E9FC0011124B7018A5925
:101100009E4F05C0BF01645F7F4F87E491E00E945E
:10111000B30DE0912401F09125019E8986898917FC
:1011200048F40115110519F081E0F801808381E090
:1011300080932D01DF91CF911F910F91FF90EF9040
:101140000895009721F480912401909125010FB614
:10115000F8940F92FC0125A1223019F415A281E028
:1011600001C080E00F900FBE08950FB6F8940F9263
:10117000FC01928D0F900FBE81E0911180E00895E7
:101180000F931F93CF93DF93EC01042F1A8D4C8D97
:101190004423B1F150E0011115C08A819B810E9466
:1011A0002A122C8D8A819B81820F911D9B838A83B9
:1011B0002C813D818217930718F1888199819B8347
:1011C0008A831EC08E819F810E942A128C8D90E09E
:1011D0009195819591092E813F81280F391F3F8379
:1011E0002E83488159812417350730F42C813D81A5
:1011F000820F931F9F838E83023011F411111150BF
:101200001F5F1A8F80E0DF91CF911F910F9108959A
:10121000FC01CB01448D4423A1F050E026813781AD
:10122000240F351F3783268364817581261737077E
:1012300020F02081318137832683668177810C9469
:101240002A120895EF92FF921F93CF93DF93EC0140
:101250000FB6F8940F921E8D7C0181E1E80EF11C0F
:1012600011165CF48989882341F0C7010E94B805F2
:1012700081110E9478061150F3CF8FEF8E8F0F905F
:101280000FBE0FB6F8940F921D8D7E0188E0E80E18
:10129000F11C11165CF48885882341F0C7010E9477
:1012A000B80581110E9478061150F3CF8FEF8D8F12
:1012B0000F900FBEDF91CF911F91FF90EF90089597
:1012C000CF93DF93EC010FB6F8940F9248815981C8
:1012D0008B8D7C8D9A01879F200D311D11243D83BC
:1012E0002C831A8E5B834A8390E00197789F90014C
:1012F000799F300D1124CA01820F931F9F838E8323
:101300008FEF8D8F8E8F61110CC08885882389F0B7
:10131000CE0108960E94B805882359F00E94E41077
:1013200008C0CE0108960E94A10DCE0141960E94F0
:10133000A10D0F900FBE81E0DF91CF9108950F9323
:101340001F93CF93DF93082F162F662321F0869FDC
:10135000C001112402C080E090E04F960E94F60F79
:10136000EC01009771F0111103C09983888303C0C9
:101370004F96998388830B8F1C8F61E0CE010E946A
:101380006009CE01DF91CF911F910F910895AF9227
:10139000BF92CF92DF92FF920F931F93CF93DF9371
:1013A00000D000D01F92CDB7DEB78C016B015D83FA
:1013B0004C83F22E80E0580198E0A90EB11C0FB6C4
:1013C000F8940F92F801228D938D291718F0F2E00E
:1013D000FF1214C04F2DB601C8010E94C008F801C9
:1013E0009189992321F0C80141960E94B805811185
:1013F0000E94E4100F900FBE81E050C02C813D810F
:10140000232B19F40F900FBE48C0811104C0CE01E8
:1014100001960E943A060F900FBE0E946E030FB60F
:10142000F8940F92F801858D8F3F09F4158EF8011D
:10143000868D8F3F09F4168E0F900FBEBE016C5F34
:101440007F4FCE0101960E944506811121C00FB643
:10145000F8940F92F801928D0F900FBE838D981320
:1014600011C06C817D81C5010E948F05C8010E9459
:1014700022090E943A04882311F081E0A0CF0E9443
:10148000E410FBCFC8010E9422090E943A04F5CF64
:10149000C8010E9422090E943A0480E00F900F9038
:1014A0000F900F900F90DF91CF911F910F91FF90B0
:1014B000DF90CF90BF90AF900895EF92FF921F936F
:1014C000CF93DF93EC019A8D8B8D981710F022301B
:1014D000E1F47A011E8D422FCE010E94C0081F3F09
:1014E00081F48989882379F0CE0141960E94B8055C
:1014F000882349F0E114F10431F081E0F7018083A1
:1015000005C01F5F1E8F81E001C080E0DF91CF9199
:101510001F91FF90EF900895CF93DF93FC01928D80
:10152000838D9817C0F4868D9F5F928F8F3F79F4DB
:101530008189882371F0EB01CF0141960E94B805A3
:10154000882339F0209729F081E0888305C08F5FD8
:10155000868F81E001C080E0DF91CF910895AF9246
:10156000BF92CF92DF92FF920F931F93CF93DF939F
:1015700000D000D01F92CDB7DEB78C016B015D8328
:101580004C8380E0580191E1A90EB11C0FB6F8948C
:101590000F92F801F28CFF20A9F0B601C8010E9459
:1015A0000809FA94F801F28E8085882339F0C80181
:1015B00008960E94B80581110E94E4100F900FBE9A
:1015C00081E050C02C813D81232B19F40F900FBE78
:1015D00048C0811104C0CE0101960E943A060F90C6
:1015E0000FBE0E946E030FB6F8940F92F801858D1E
:1015F0008F3F09F4158EF801868D8F3F09F4168E02
:101600000F900FBEBE016C5F7F4FCE0101960E940E
:10161000450681111CC0C8010E94B508882389F0C5
:101620006C817D81C5010E948F05C8010E9422093D
:101630000E943A04882311F081E0A8CF0E94E410B0
:10164000FBCFC8010E9422090E943A04F5CFC801CD
:101650000E9422090E943A04C8010E94B50888230A
:1016600059F380E00F900F900F900F900F90DF9143
:10167000CF911F910F91FF90DF90CF90BF90AF90CF
:101680000895EF92FF920F931F93CF93DF9300D0B3
:1016900000D01F92CDB7DEB78C017D836C8390E0C4
:1016A000780181E1E80EF11C0FB6F8940F92F80171
:1016B000828D882381F08150828F8085882339F044
:1016C000C80108960E94B80581110E94E4100F908D
:1016D0000FBE81E050C02C813D81232B19F40F9067
:1016E0000FBE48C0911104C0CE0101960E943A0677
:1016F0000F900FBE0E946E030FB6F8940F92F80180
:10170000858D8F3F09F4158EF801868D8F3F09F482
:10171000168E0F900FBEBE016C5F7F4FCE010196FB
:101720000E94450681111CC0C8010E94B50888238B
:1017300089F06C817D81C7010E948F05C8010E94DC
:1017400022090E943A04882311F091E0ADCF0E9453
:10175000E410FBCFC8010E9422090E943A04F5CF91
:10176000C8010E9422090E943A04C8010E94B508DB
:10177000882359F380E00F900F900F900F900F90F7
:10178000DF91CF911F910F91FF90EF900895CF922D
:10179000DF92EF92FF920F931F93CF93DF9300D0CE
:1017A00000D01F92CDB7DEB78C017B015D834C83E7
:1017B00080E0680191E1C90ED11C0FB6F8940F9238
:1017C000F801928D9923B9F0C680D780B701C8017E
:1017D0000E940809F801D782C6828189882339F0DE
:1017E000C80141960E94B80581110E94E4100F9033
:1017F0000FBE81E050C02C813D81232B19F40F9046
:101800000FBE48C0811104C0CE0101960E943A0665
:101810000F900FBE0E946E030FB6F8940F92F8015E
:10182000858D8F3F09F4158EF801868D8F3F09F461
:10183000168E0F900FBEBE016C5F7F4FCE010196DA
:101840000E94450681111CC0C8010E94B50888236A
:1018500089F06C817D81C6010E948F05C8010E94BC
:1018600022090E943A04882311F081E0A6CF0E9449
:10187000E410FBCFC8010E9422090E943A04F5CF70
:10188000C8010E9422090E943A04C8010E94B508BA
:10189000882359F380E00F900F900F900F900F90D6
:1018A000DF91CF911F910F91FF90EF90DF90CF903C
:1018B0000895EF92FF920F931F93CF93DF93FC0154
:1018C000028D0023E9F07A01EC01158D0E940809D0
:1018D00001500A8F1F3F81F48885882379F0CE015B
:1018E00008960E94B805882349F0E114F10431F00C
:1018F00081E0F701808305C01F5F1D8F81E001C07B
:1019000080E0DF91CF911F910F91FF90EF900895AC
:101910000F931F93CF93DF93FC01228D222349F075
:10192000EC01068117810E9408091F830E8381E064
:1019300001C080E0DF91CF911F910F9108950FB604
:10194000F8940F92FC01828D0F900FBE08950FB690
:10195000F8940F92FC01228D0F900FBE838D821B95
:101960000895FC01828D08950C942810FC01928D3D
:1019700081E0911180E00895FC01928D81E0238D3A
:10198000291380E00895CF93DF93EC01F8940FB60C
:10199000F8940F928A8D9B8D0F900FBE89130FC004
:1019A0004115510549F0BE01685F7F4FCA010E9491
:1019B000A20E78948CEF1BC0789480E018C07894C5
:1019C000F8948A8D891788F440E0CE010E94C008FF
:1019D0008989811102C081E009C0CE0141960E942F
:1019E000D10F8823C1F38BEF01C080E07894DF91A1
:1019F000CF910895CF93DF93EC01FB01F8948A8D8A
:101A000081110FC04115510549F0BE016F5E7F4F36
:101A1000CA010E94A20E78948CEF30C0789480E0C6
:101A20002DC07894F8948A8D882331F14C8D50E044
:101A30002E813F81240F351F3F832E838C819D8112
:101A40002817390720F0888199819F838E839A8D8A
:101A500091509A8F6E817F81CF010E942A128885D2
:101A6000811102C081E009C0CE0108960E94D10F09
:101A70008823C1F38BEF01C080E07894DF91CF9190
:101A800008950F931F93CF938C01C42FFC01928D67
:101A9000838D981710F04C2F12C040E0C8010E94AF
:101AA000C008C111F8CFF8018189882339F0C80135
:101AB00041960E94D10F41E0811101C040E0842F86
:101AC000CF911F910F9108950F931F93CF93DF93A1
:101AD000FC01828D882379F1248D30E0A681B781C5
:101AE000A20FB31FB783A68384819581A817B90776
:101AF00020F080819181978386838A01CB01EF0159
:101B0000428D4150428F66817781A9010E942A123D
:101B1000F8018081882311F081E00EC08885882338
:101B2000D9F3CE0108960E94D10F8823A9F381E052
:101B3000F801808301C080E0DF91CF911F910F9168
:101B40000895FC010396928381832FEF3FEF348346
:101B50002383968385839087878310820895FC0171
:101B6000118610860895CF93DF939C01FB01DC0161
:101B70001196CD91DC911297D383C2838C819D8184
:101B8000958384838C819D81DC0113967C936E9375
:101B900012977D836C8331872087F90180818F5F65
:101BA0008083DF91CF9108950F931F93CF93DF939D
:101BB0008C01FB01808191818F3F2FEF920721F4EF
:101BC000E801AF81B8850EC0D801139612962D9109
:101BD0003C911397E901488159818417950710F0CA
:101BE000D901F4CF12968D919C91139793838283A0
:101BF000EC01FD83EC83B583A4831396FC93EE93F1
:101C0000129711870087F80180818F5F8083DF91B1
:101C1000CF911F910F910895CF93DF93FC01A08581
:101C2000B1858281938124813581EC013D832C83B0
:101C3000C481D5819B838A8311968D919C91129743
:101C4000E817F90721F41296DC93CE9311971186C9
:101C500010868C9181508C938C91DF91CF91089557
:101C6000CF92DF92EF92FF921F93CF93DF936C019D
:101C7000162FF42E8AE190E00E94F60FEC01892BDA
:101C800009F457C080918A0190918B01892B21F52D
:101C9000D0938B01C0938A0182EB91E00E94A10D49
:101CA0008BEB91E00E94A10D89EA91E00E94A10DC9
:101CB00080EA91E00E94A10D83E991E00E94A10DCC
:101CC00089EA91E090939F0180939E0180EA91E0E0
:101CD00090939D0180939C01111111E0198E188E33
:101CE0001E8BFF8AFE01C192D1927F01CF010E941B
:101CF000AF0DCE010C960E94AF0DD987C887DB8B44
:101D0000CA8B82E090E0811B91099D878C878E8928
:101D100090919201981710F480939201F9E08F9FAF
:101D2000C0011124B7018E549E4F0E94B30D81E073
:101D300001C08FEFDF91CF911F91FF90EF90DF9067
:101D4000CF9008950F931F93CF93DF938B01C09192
:101D50009001D0919101C80FD91F80918A01909173
:101D60008B0102960E940C0EE0918A01F0918B018A
:101D7000D383C2838091900190919101BF016E5FE6
:101D80007F4FC817D90728F480919C0190919D013D
:101D900004C080919E0190919F010E94D40D011575
:101DA000110569F060918A0170918B01645F7F4F2A
:101DB000C801DF91CF911F910F910C94D40DDF9149
:101DC000CF911F910F910895FF920F931F93CF937F
:101DD000DF9399E0F92E80919301882311F1F89413
:101DE000E0919801F0919901C681D781CE010C96BE
:101DF0000E940C0E78948E010E5F1F4FC8010E9446
:101E00000C0E8E8990919201981710F48093920194
:101E1000F89EC0011124B8018E549E4F0E94B30D4C
:101E2000DACF0E94740320918E0130918F01821BC2
:101E3000930B90938D0180938C0189E0F82E209173
:101E40008C0130918D01809190019091910121152B
:101E5000310509F454C0019690939101809390014B
:101E60002150310930938D0120938C01892B09F089
:101E70003EC080919E0190919F0120919C013091E4
:101E80009D0130939F0120939E0190939D0180932B
:101E90009C012DC00580F681E02DC681D7812A8165
:101EA0003B8180919001909191018217930738F2C4
:101EB000F8948E010E5F1F4FC8010E940C0E8C8992
:101EC0009D89892B21F0CE010C960E940C0E7894EE
:101ED0008E8990919201981710F480939201F89E48
:101EE000C0011124B8018E549E4F0E94B30DE091A1
:101EF0009E01F0919F0180818111CCCFA0CF909362
:101F00008F0180938E018091920169E0482F50E00B
:101F1000649F9001659F300D1124F901EE54FE4F2E
:101F2000908191110CC0811108C010929201DF9133
:101F3000CF911F910F91FF9008958150E7CF80932B
:101F40009201A181B28112960D90BC91A02DB28315
:101F5000A1832B543E4FA217B30731F412968D91F3
:101F60009C9113979283818389E0849FF001859FE0
:101F7000F00D1124EE54FE4F0180F281E02D868198
:101F8000978190938B0180938A01DC01ED91FC9104
:101F9000119757966C91DF91CF911F910F91FF9000
:101FA00009940F931F93CF93DF93DC011596ED9166
:101FB000FC911697C681D7818E01045F1F4FC8011F
:101FC0000E940C0EB80183E991E00E94B30DE091EC
:101FD0008A01F0918B0181E02E899689291708F4F6
:101FE00080E0DF91CF911F910F910895CF93DF9300
:101FF000EC010E946E038091C4019091C501892B70
:1020000031F489EC91E09093C5018093C401209153
:10201000C6013091C701C9018C0F9D1F8B3D45E062
:10202000940770F42817390758F4C091C401D0916F
:10203000C501C20FD31F9093C7018093C60102C090
:10204000C0E0D0E00E943A04CE01DF91CF91089524
:1020500008951092C7011092C60108952091C601FB
:102060003091C7018BED95E0821B930B089531E110
:10207000FC013083319722E220833197A3E3A083D0
:10208000319760833197708331971082319760E880
:10209000608331971082319762E06083319763E00B
:1020A0006083319764E06083319765E060833197A6
:1020B00066E06083319767E06083319768E0608312
:1020C000319769E06083319760E1608331973083B5
:1020D000319732E13083319733E13083319734E106
:1020E0003083319735E13083319736E13083319752
:1020F00037E13083319738E13083319739E13083EC
:10210000319730E23083319731E230833197208349
:10211000319723E220833197408331975083319761
:1021200026E22083319727E22083319728E220831B
:10213000319729E22083319720E32083319721E3EF
:1021400020838697089589EF90E09093890080938B
:102150008800E0E8F0E080818C7F80838BE08093D2
:102160008100EFE6F0E0808182608083A09124010D
:10217000B0912501CD91CDBFDD91DEBFFF91EF91F3
:10218000DF91CF91BF91AF919F918F917F916F918F
:102190005F914F913F912F911F910F91FF90EF9081
:1021A000DF90CF90BF90AF909F908F907F906F9077
:1021B0005F904F903F902F901F900F900FBE0F9009
:1021C000089581E0089508950F920FB6F8940F9244
:1021D0001F9211242F923F924F925F926F927F92A3
:1021E0008F929F92AF92BF92CF92DF92EF92FF9227
:1021F0000F931F932F933F934F935F936F937F930F
:102200008F939F93AF93BF93CF93DF93EF93FF93FE
:10221000A0912401B09125010DB60D920EB60D923C
:102220000E94F604A0912401B0912501CD91CDBF6B
:10223000DD91DEBFFF91EF91DF91CF91BF91AF9123
:102240009F918F917F916F915F914F913F912F91CE
:102250001F910F91FF90EF90DF90CF90BF90AF90C4
:102260009F908F907F906F905F904F903F902F90B6
:102270001F900F900FBE0F9008950F920FB6F89415
:102280000F921F9211242F923F924F925F926F9262
:102290007F928F929F92AF92BF92CF92DF92EF92F6
:1022A000FF920F931F932F933F934F935F936F93DF
:1022B0007F938F939F93AF93BF93CF93DF93EF93CE
:1022C000FF93A0912401B09125010DB60D920EB699
:1022D0000D920E948E0381110E94F604A0912401A8
:1022E000B0912501CD91CDBFDD91DEBFFF91EF9182
:1022F000DF91CF91BF91AF919F918F917F916F911E
:102300005F914F913F912F911F910F91FF90EF900F
:10231000DF90CF90BF90AF909F908F907F906F9005
:102320005F904F903F902F901F900F900FBE0F9097
:1023300008950E943D111895CF93C82F8091C00039
:1023400085FD03C00E94E410F9CFC093C60080E071
:1023500090E0CF9108958091C00087FD03C00E9456
:10236000E410F9CF8091C60090E008951092C50066
:1023700087E68093C400E0ECF0E080818D7F80836D
:1023800086E08093C20088E18093C1000895EF92B7
:10239000FF920F93CF93DF9300D000D0CDB7DEB77D
:1023A000E6EAF7E01192119288E0E037F807D1F7FA
:1023B000CE0103967C0102E020E030E045E550E0EC
:1023C0006EE071E084E790E00E945A01CE01019630
:1023D0007C0101E020E030E045E550E066E171E09D
:1023E00083E590E00E945A010E943F0380E090E064
:1023F0000F900F900F900F90DF91CF910F91FF9062
:10240000EF90089597FB072E16F4009407D077FD00
:1024100009D00E94161207FC05D03EF490958195D4
:102420009F4F0895709561957F4F0895AA1BBB1B20
:1024300051E107C0AA1FBB1FA617B70710F0A61BC4
:10244000B70B881F991F5A95A9F780959095BC01E5
:10245000CD010895FB01DC0102C001900D924150B5
:0A2460005040D8F70895F894FFCF1C
:10246A0000000003000000009C11AB11000073651E
:10247A006B756E64610064726162696E6B610049BA
:04248A00444C450079
:00000001FF
