:100000000C9434000C9451000C9451000C94510049
:100010000C9451000C9451000C9451000C9451001C
:100020000C9451000C9451000C9451000C9451000C
:100030000C9451000C9451000C9451000C945100FC
:100040000C9451000C9451000C9451000C945100EC
:100050000C9451000C9451000C9451000C945100DC
:100060000C9451000C94510011241FBECFEFD8E026
:10007000DEBFCDBF11E0A0E0B1E0E4E7F3E002C0F5
:1000800005900D92A63BB107D9F721E0A6EBB1E0B0
:1000900001C01D92AA3CB207E1F70E949C000C949B
:1000A000B8010C9400009091C00095FFFCCF8093A4
:1000B000C60080E090E008958091C00087FFFCCFEB
:1000C0008091C60090E0089587E690E09093C50087
:1000D0008093C4001092C00088E18093C10086E044
:1000E0008093C2000895EF92FF920F931F93CF93D6
:1000F000DF937C01C0E0D1E001E610E006C00F5FB5
:100100001F4F81E0C233D80781F069917991C7010F
:100110000E946C01892B99F7C8010E9475010F5F3D
:100120001F4F81E0C233D80781F7DF91CF911F9134
:100130000F91FF90EF900895CF93DF9300D000D000
:100140001F92CDB7DEB787E690E09093C50080930D
:10015000C4001092C00088E18093C10086E08093C3
:10016000C20086EB91E023E530E03093BF0120939D
:10017000BE012CE530E03093C1012093C00123E0A3
:100180002093B9011092C3011092C2019093C9014A
:100190008093C8019093C7018093C6019093C501D5
:1001A0008093C4012C9A259A239A229A85E0E4E34D
:1001B000F1E0DE01119601900D928A95E1F7812C14
:1001C000912CA12CB12CC12CD12C80E090E020E30B
:1001D000722E31E3632E42E3542EEFE3FCE93197B4
:1001E000F1F700C00000F0E1CF16D104F4F02D9A31
:1001F000009709F03FC0E1E0F0E0EC0FFD1FE80DD3
:10020000F91D60822FEF821A920AC12CD12C1C9BFF
:1002100021C02FEFA21AB20A8EE1A816B10479F11B
:100220002D982B9880E090E0D8CFE2E0CE16D10454
:1002300074F32B9A009759F7E1E0F0E0EC0FFD1F03
:10024000E80DF91D7082FFEF8F1A9F0AC12CD12C87
:100250001C99DFCFEFE1AE16B10414F0812C912C84
:100260002A98019680FD08C0FFEFCF1ADF0AA12C63
:10027000B12CB3CF2B9ACBCFA12CB12CAECF2A9AD5
:10028000E2E08E16910424F1F2E08F16910409F158
:1002900023E082169104F1F000E011E081E6E82EFF
:1002A000F12C08C0FFEFEF1AFF0A21E0023312071A
:1002B00009F4B6CFF801619171918F01CE010196D9
:1002C0000E946C01892B71F7C7010E947501EACF6A
:1002D0005A825B825C82E0CFFB01DC018D91019050
:1002E00080190110D9F3990B08956091C60170919E
:1002F000C7010E947C0108950F931F93CF93DF9352
:10030000FB01238121FD03C08FEF9FEF2CC022FF53
:1003100016C046815781248135814217530744F422
:10032000A081B1819D012F5F3F4F318320838C934A
:10033000268137812F5F3F4F3783268314C08B017F
:10034000EC01FB010084F185E02D0995892BE1F694
:10035000D80116968D919C911797019617969C93AC
:100360008E931697CE01DF91CF911F910F91089533
:04037000F894FFCF2F
:1003740039013E01430148014D01520157015C011D
:1003840061013E0166016B01700175017A017F0113
:10039400840189018E01930198019D01A201A701A5
:1003A400AC01B101323232320030313232003031FC
:1003B40031310031303130003130303200303232BE
:1003C40032003030313000313130320030303030B2
:1003D40000303032320031303132003031303000D0
:1003E4003131323200313032320031313132003089
:1003F4003131300031313031003031303200303081
:10040400303200313232320030303132003030306C
:10041400310030313132003130303100313031315E
:0604240000313130300010
:00000001FF
