:100000000C9434000C943E000C943E000C943E0082
:100010000C943E000C943E000C943E000C943E0068
:100020000C943E000C943E000C943E000C943E0058
:100030000C943E000C943E000C943E000C943E0048
:100040000C943E000C943E000C943E000C943E0038
:100050000C943E000C943E000C943E000C943E0028
:100060000C943E000C943E0011241FBECFEFD8E04C
:10007000DEBFCDBF0E9440000C94AA000C9400008B
:10008000CF93DF93CDB7DEB7C556D1090FB6F8943D
:10009000DEBF0FBECDBF2C9A259A8E010F5F1F4F7A
:1000A00085E6F80111928A95E9F720E030E041E019
:1000B00085E6E82EF12CF801E20FF31F1C9B1EC011
:1000C00040832F5F3F4FC901B7010E948200F801B2
:1000D000E80FF91F8081882399F02D988FE39CE920
:1000E0000197F1F700C000002536310524F320E028
:1000F00030E0F801E20FF31F1C99E2CF1082E1CF4C
:100100002D9AECCF97FB072E16F4009407D077FDBD
:1001100009D00E94960007FC05D03EF49095819589
:100120009F4F0895709561957F4F0895AA1BBB1B43
:1001300051E107C0AA1FBB1FA617B70710F0A61BE7
:10014000B70B881F991F5A95A9F780959095BC0108
:08015000CD010895F894FFCFE2
:00000001FF
