:100000000C943A000C9457000C9457000C94570031
:100010000C9457000C9457000C9457000C94570004
:100020000C9457000C9457000C9457000C945700F4
:100030000C9457000C9457000C9457000C945700E4
:100040000C9457000C9457000C9457000C945700D4
:100050000C9457000C9457000C9457000C945700C4
:100060000C9457000C9457006364696E6F7073753D
:1000700078585B0011241FBECFEFD8E0DEBFCDBFA4
:1000800011E0A0E0B1E0E8EEF6E102C005900D92CB
:10009000A234B107D9F721E0A2E4B1E001C01D927A
:1000A000A635B207E1F70E9479000C94720B0C940C
:1000B00000009091C00095FFFCCF8093C60080E0C7
:1000C00090E008958091C00087FFFCCF8091C6002A
:1000D00090E0089587E690E09093C5008093C40077
:1000E0001092C00088E18093C10086E08093C20036
:1000F00008952F923F924F925F926F927F928F92CC
:100100009F92AF92BF92CF92DF92EF92FF920F93A6
:100110001F93CF93DF93CDB7DEB7AE970FB6F894AA
:10012000DEBF0FBECDBF87E690E09093C500809301
:10013000C4001092C00088E18093C10086E08093E3
:10014000C200E2E4F1E089E590E09187808782E6F1
:1001500090E09387828783E0838315861486A0E5E9
:10016000B1E01596FC93EE9314971396FC93EE93DF
:100170001297ED93FC93CE0186969F938F9300E0A8
:1001800011E01F930F930E94B005CE0185969F93B7
:100190008F931F930F930E94B005CE0183969F9378
:1001A0008F930FE011E01F930F930E94B005CE01D3
:1001B00081969F938F931F930F930E94B005CE015A
:1001C0004D969F938F930EE111E01F930F930E9422
:1001D000B005CE0149969F938F931F930F930E9472
:1001E000B005CE0109969F938F9300E311E01F9312
:1001F0000F930E94B005CE0101969F938F931F939A
:100200000F930E94B0050FB6F894DEBF0FBECDBFAE
:10021000CE0145969F938F930FE311E01F930F93A9
:100220000E94B005CE0141969F938F931F930F9329
:100230000E94B0054EA1E42F042E000CFF0B1DA15F
:10024000212F012E000C330BCF01B9010E94410276
:100250007F936F934102C00111249F938F932E0FC0
:100260003F1F3F932F9305E011E01F930F930E94D0
:100270009A05EBA1FCA129A13AA1CF01B9010E94E5
:1002800041027F936F93E29FC001E39F900DF29F25
:10029000900D11249F938F932E0F3F1F3F932F9309
:1002A0001F930F930E949A058D8C9E8CAF8CB8A0E3
:1002B000498C5A8C6B8C7C8CC501B401A3019201D2
:1002C0000E9455025F934F933F932F93A501940192
:1002D000C301B2010E9431029F938F937F936F936A
:1002E000D501C401840D951DA61DB71DBF93AF9305
:1002F0009F938F9382E191E09F938F930E949A0541
:1003000029843A844B845C846D847E848F849888AD
:1003100099819FA38A8188A79B8199A78C818AA7AD
:100320009D819BA78E818CA79F819DA788858EA785
:100330000FB6F894DEBF0FBECDBFAFA0B8A4C9A45E
:10034000DAA4EBA4FCA40DA51EA59101A201B301A2
:10035000C4010E94DA029F938F937F936F935F9300
:100360004F933F932F93AFA0B8A4C9A4DAA4EBA4F2
:10037000FCA40DA51EA59101A201B301C4010E9418
:100380007F029F938F937F936F935F934F933F93DE
:100390002F939101A201B301C401AFA0B8A4C9A4D5
:1003A000DAA4EBA4FCA40DA51EA50E94AF039F93A5
:1003B0008F937F936F935F934F933F932F9382E23B
:1003C00091E09F938F930E949A054D885E886F8875
:1003D000788C89889A88AB88BC88A5019401C30170
:1003E000B2010E946A049F938F937F936F93A5013C
:1003F0009401C301B2010E942D059F938F937F93B7
:100400006F93A5019401C301B2010E94FE039F9363
:100410008F937F936F9385E391E09F938F930E94D7
:100420009A050FB6F894DEBF0FBECDBF80E090E016
:10043000AE960FB6F894DEBF0FBECDBFDF91CF9161
:100440001F910F91FF90EF90DF90CF90BF90AF90F2
:100450009F908F907F906F905F904F903F902F90E4
:100460000895DB018F939F930E947402BF91AF9117
:10047000A29F800D911DA39F900DB29F900D1124FE
:10048000089597FB072E16F4009407D077FD09D046
:100490000E94B80307FC05D03EF4909581959F4FCC
:1004A0000895709561957F4F0895052E97FB1EF472
:1004B00000940E946C0257FD07D00E94CC0307FCF9
:1004C00003D04EF40C946C025095409530952195D4
:1004D0003F4F4F4F5F4F0895909580957095619570
:1004E0007F4F8F4F9F4F08950E94EE03A59F900D61
:1004F000B49F900DA49F800D911D11240895DF934A
:10050000CF931F930F939A9DF02D219FF00D8B9DFC
:10051000F00D8A9DE02DF10D039FF00D029FE00D7F
:10052000F11D4E9DE00DF11D5E9DF00D4F9DF00DF6
:100530007F936F93BF92AF925F934F93D5010E94C9
:10054000EE038B01AC01D7010E94EE03EB01E80F33
:10055000F91FD6010E94CF022F913F91D6010E9430
:10056000EE03C60FD71FE81FF91FAF91BF910E947E
:10057000CF022F913F910E94EE03C60FD71FE81FB5
:10058000F91FD6010E94EE03E60FF71F9801BE0186
:10059000CF0111240F911F91CF91DF9108950E94F7
:1005A000EE03460F571FC81FD91F08F43196089550
:1005B000689401C0E894F92FF12B12F00C940C030D
:1005C000A0E0B0E0E6EEF2E00C947E03092E059484
:1005D00022F40E946803112392F4F0E80F26FFEF43
:1005E000E094F09400951095B094C094D094A194A8
:1005F000BF0ACF0ADF0AEF0AFF0A0F0B1F0B0E9488
:10060000170307FC0E946803CDB7DEB7ECE00C943B
:100610009A03689401C0E8948F929F92CF93DF93DE
:100620000E941703DF91CF919F908F9008958824A7
:100630009924F401E401B0E49F93AA279A158B044E
:100640009C04ED05FE05CF05D007A10798F4AD2F5A
:10065000DC2FCF2FFE2FE92D982C892E982F872F56
:10066000762F652F542F432F322F2227B85031F782
:10067000BF9127C01B2EBF91BB27220F331F441FE2
:10068000551F661F771F881F991F881C991CEE1F16
:10069000FF1FCC1FDD1FAA1FBB1F8A149B04EC0584
:1006A000FD05CE05DF05A007B10748F08A189B08B5
:1006B000EC09FD09CE09DF09A00BB10B21601A94EA
:1006C000E1F62EF49401AF01BE01CD01000C0895B6
:1006D00060957095809590953095409550952195B1
:1006E0003F4F4F4F5F4F6F4F7F4F8F4F9F4F08953B
:1006F0002F923F924F925F926F927F928F929F9232
:10070000AF92BF92CF92DF92EF92FF920F931F931F
:10071000CF93DF93CDB7DEB7CA1BDB0B0FB6F894D0
:10072000DEBF0FBECDBF09942A88398848885F8410
:100730006E847D848C849B84AA84B984C884DF8081
:10074000EE80FD800C811B81AA81B981CE0FD11D65
:100750000FB6F894DEBF0FBECDBFED0108952A0D90
:100760003B1D4C1D5D1D6E1D7F1D801F911F08953B
:10077000AA1BBB1B51E107C0AA1FBB1FA617B707C7
:1007800010F0A61BB70B881F991F5A95A9F78095E3
:100790009095BC01CD010895A1E21A2EAA1BBB1BA6
:1007A000FD010DC0AA1FBB1FEE1FFF1FA217B3073D
:1007B000E407F50720F0A21BB30BE40BF50B661F53
:1007C000771F881F991F1A9469F760957095809517
:1007D00090959B01AC01BD01CF010895A29FB0018E
:1007E000B39FC001A39F700D811D1124911DB29F65
:1007F000700D811D1124911D08955058BB27AA2703
:100800000E9415040C94F3040E94E50438F00E9441
:10081000EC0420F039F49F3F19F426F40C94E20420
:100820000EF4E095E7FB0C94DC04E92F0E9404052C
:1008300058F3BA17620773078407950720F079F415
:10084000A6F50C9426050EF4E0950B2EBA2FA02DDC
:100850000B01B90190010C01CA01A0011124FF276D
:10086000591B99F0593F50F4503E68F11A16F04068
:10087000A22F232F342F4427585FF3CF4695379567
:100880002795A795F0405395C9F77EF41F16BA0B2C
:10089000620B730B840BBAF09150A1F0FF0FBB1FDA
:1008A000661F771F881FC2F70EC0BA0F621F731F23
:1008B000841F48F4879577956795B795F7959E3F80
:1008C00008F0B0CF9395880F08F09927EE0F979511
:1008D000879508950E947E040C94F3040E94EC0412
:1008E00058F00E94E50440F029F45F3F29F00C9491
:1008F000DC0451110C9427050C94E2040E940405B9
:1009000068F39923B1F3552391F3951B550BBB273E
:10091000AA2762177307840738F09F5F5F4F220F83
:10092000331F441FAA1FA9F335D00E2E3AF0E0E87A
:1009300032D091505040E695001CCAF72BD0FE2FC4
:1009400029D0660F771F881FBB1F26173707480758
:10095000AB07B0E809F0BB0B802DBF01FF27935810
:100960005F4F3AF09E3F510578F00C94DC040C94F4
:1009700027055F3FE4F3983ED4F386957795679516
:10098000B795F7959F5FC9F7880F911D9695879545
:1009900097F90895E1E0660F771F881FBB1F621764
:1009A00073078407BA0720F0621B730B840BBA0B22
:1009B000EE1F88F7E095089597F99F6780E870E04B
:1009C00060E008959FEF80EC089500240A941616C5
:1009D000170618060906089500240A94121613062D
:1009E000140605060895092E0394000C11F48823BB
:1009F00052F0BB0F40F4BF2B11F460FF04C06F5FD7
:100A00007F4F8F4F9F4F089557FD9058440F551FAC
:100A100059F05F3F71F04795880F97FB991F61F080
:100A20009F3F79F087950895121613061406551FF7
:100A3000F2CF4695F1DF08C0161617061806991F63
:100A4000F1CF86957105610508940895E894BB2758
:100A500066277727CB0197F908950E9440050C94EB
:100A6000F3040E94E50438F00E94EC0420F0952382
:100A700011F00C94DC040C94E20411240C9427056E
:100A80000E94040570F3959FC1F3950F50E0551F28
:100A9000629FF001729FBB27F00DB11D639FAA27D3
:100AA000F00DB11DAA1F649F6627B00DA11D661F22
:100AB000829F2227B00DA11D621F739FB00DA11D43
:100AC000621F839FA00D611D221F749F3327A00DFD
:100AD000611D231F849F600D211D822F762F6A2F99
:100AE00011249F5750409AF0F1F088234AF0EE0FFE
:100AF000FF1FBB1F661F771F881F91505040A9F72B
:100B00009E3F510580F00C94DC040C9427055F3F58
:100B1000E4F3983ED4F3869577956795B795F79566
:100B2000E7959F5FC1F7FE2B880F911D96958795DE
:100B300097F90895A0E0B0E0E0EAF5E00C948803AE
:100B4000AE014B5F5F4FFA0161917191AF018091EE
:100B50005201909153010E94C605E2E00C94A40357
:100B6000A0E0B0E0E6EBF5E00C948803AE014B5F4B
:100B70005F4FFA0161917191AF01809150019091A5
:100B800051010E944309E2E00C94A403ABE0B0E001
:100B9000ECECF5E00C9478036C017B018A01FC011C
:100BA00017821682838181FFCCC1CE0101963C0160
:100BB000F6019381F70193FD859193FF81917F0168
:100BC000882309F4BAC1853239F493FD859193FFE6
:100BD00081917F01853229F4B60190E00E94BC0A20
:100BE000E7CF912C212C312CFFE1F315D8F08B327B
:100BF00079F038F4803279F08332A1F4232D20612A
:100C00001DC08D3261F0803369F4232D216016C040
:100C1000832D8260382EE32DE4603E2E2AC0F32D12
:100C2000F8601DC037FC2DC020ED280F2A3040F0A1
:100C30008E32B9F436FC81C1232D2064322E19C0C6
:100C400036FE06C08AE0989E200D1124922E11C017
:100C5000EAE02E9E200D1124222EF32DF0623F2E6D
:100C600008C08C3621F4832D8068382E02C0883667
:100C700041F4F70193FD859193FF81917F018111EB
:100C8000B3CF982F9F7D9554933028F40C5F1F4F5E
:100C90009FE399830DC0833631F0833771F083353C
:100CA00009F059C021C0F801808189830E5F1F4F70
:100CB00088248394912C530113C02801F2E04F0E35
:100CC000511CF801A080B18036FE03C0692D70E090
:100CD00002C06FEF7FEFC5010E94730A4C018201D1
:100CE000F32DFF773F2E16C0280122E0420E511C43
:100CF000F801A080B18036FE03C0692D70E002C00B
:100D00006FEF7FEFC5010E94680A4C01F32DF06878
:100D10003F2E820133FC1BC0822D90E0881699067D
:100D2000B0F4B60180E290E00E94BC0A2A94F4CFAD
:100D3000F50137FC859137FE81915F01B60190E0A6
:100D40000E94BC0A21102A9421E0821A9108811481
:100D5000910471F7E8C0843611F0893641F5F80145
:100D600037FE07C060817181828193810C5F1F4FC4
:100D700008C060817181072E000C880B990B0E5FF3
:100D80001F4FF32DFF763F2E97FF09C0909580955A
:100D9000709561957F4F8F4F9F4FF0683F2E2AE0EF
:100DA00030E0A3010E94110B882E861845C08537BC
:100DB00031F4232D2F7EB22E2AE030E025C0932D72
:100DC000997FB92E8F36C1F018F4883579F0B5C007
:100DD000803719F0883721F0B0C0E92FE061BE2ECE
:100DE000B4FE0DC0FB2DF460BF2E09C034FE0AC056
:100DF000292F2660B22E06C028E030E005C020E191
:100E000030E002C020E132E0F801B7FE07C06081A7
:100E10007181828193810C5F1F4F06C06081718157
:100E200080E090E00E5F1F4FA3010E94110B882EFF
:100E30008618FB2DFF773F2E36FE0DC0232D2E7F0B
:100E4000A22E891458F434FE0BC032FC09C0832D45
:100E50008E7EA82E05C0B82CA32C03C0B82C01C0D0
:100E6000B92CA4FE0FC0FE01E80DF11D8081803376
:100E700021F49A2D997EA92E09C0A2FE06C0B39432
:100E8000B39404C08A2D867809F0B394A3FC11C0F2
:100E9000A0FE06C0B21488F4280C922C9B180EC039
:100EA000B21460F4B60180E290E00E94BC0AB394F0
:100EB000F7CFB21418F42B1802C0982C212CA4FEE2
:100EC00010C0B60180E390E00E94BC0AA2FE17C0E9
:100ED000A1FC03C088E790E002C088E590E0B6017D
:100EE0000CC08A2D867859F0A1FE02C08BE201C0A9
:100EF00080E2A7FC8DE2B60190E00E94BC0A891452
:100F000038F4B60180E390E00E94BC0A9A94F7CFCF
:100F10008A94F301E80DF11D8081B60190E00E94F2
:100F2000BC0A8110F5CF222009F442CEB60180E23E
:100F300090E00E94BC0A2A94F6CFF6018681978140
:100F400002C08FEF9FEF2B96E2E10C94940320FDFB
:100F500009C0FC0123FD05C022FF02C07383628328
:100F600051834083089544FD17C046FD17C0AB016F
:100F7000BC01DA01FB01AA0FBB1FEE1FFF1F10947B
:100F8000D1F74A0F5B1F6E1F7F1FCB01BA01660F9F
:100F9000771F881F991F09C033E001C034E0660F36
:100FA000771F881F991F3150D1F7620F711D811D66
:100FB000911D08950F931F93CF93DF938C01C80168
:100FC0000E947E0AEC0197FD08C00E94540A892BFA
:100FD000B1F7B801CE010E94F80ACE01DF91CF919E
:100FE0001F910F9108958F929F92AF92BF92EF92AF
:100FF000FF920F931F93CF93DF938C01D62F7A012B
:10100000B22E0E947E0A9C0133272B32310531F02B
:101010002D32310561F48B2D8068B82ED15011F43A
:1010200080E068C0C8010E947E0A97FDF9CFCB2DF1
:10103000CD7F2B2D207309F58033F9F4AA24AA94CF
:10104000AD0E09F443C0C8010E947E0A97FD3EC060
:101050009C012F7D33272835310549F4C264D250D5
:10106000A9F1C8010E947E0A97FF07C02FC0B6FEF3
:1010700002C0C26001C0C261DA2D812C912C5401E2
:1010800020ED280F283080F0C4FF04C0B8010E9472
:10109000F80A19C02A3040F0C6FFF8CF2F7D3FEE86
:1010A000320F363098F727504C2FC501B4010E94FB
:1010B000B3074B015C01C260D15059F0C8010E94D6
:1010C0007E0A97FFDDCFC1FD04C0AACF812C912CF1
:1010D0005401C7FF08C0B094A09490948094811CE0
:1010E000911CA11CB11C2C2FB501A401C7010E94A9
:1010F000A70781E0DF91CF911F910F91FF90EF90B3
:10110000BF90AF909F908F900895A0E2B0E0EBE881
:10111000F8E00C947B035C01962E7A01F9018E01B4
:101120000F5F1F4F680180E2D8011D928A95E9F791
:10113000D50113968C9080E090E0612C712C30E00A
:1011400061E070E083FC259183FE21918F01522E96
:10115000211103C080E090E092C02E3511F4009779
:1011600051F1432F50E0481759073CF42D3559F100
:101170002D3219F4772009F103C0772009F46AC0F1
:10118000452D469546954695D601A40FB11D452D92
:1011900047708B0102C0000F111F4A95E2F7A801AA
:1011A0005C91452B4C93651459F0561410F45394EC
:1011B000E7CF5A94E5CF31E004C07724739401C09F
:1011C000712C0196BFCF772019F08E8180628E83BB
:1011D000311103C08824839417C0F6019E012F5D4E
:1011E0003F4F8081809581932E173F07D1F7F2CF33
:1011F000E114F10429F0D7018C93F70131967F01B6
:101200009A94812C9920F9F0C5010E947E0A97FDDD
:1012100018C0FC01FF2723E0F595E7952A95E1F733
:10122000EC0DFD1D208130E0AC014770552702C058
:10123000359527954A95E2F720FDDACFB5010E9452
:10124000F80A811087CFE114F10411F0D7011C9244
:10125000C80115C0422F469546954695D601A40F64
:10126000B11D422F47708B0102C0000F111F4A951C
:10127000E2F7A8015C91452B4C93622EA2CFA09679
:10128000EFE00C949703A0E0B0E0E9E4F9E00C94FF
:101290007B036C01EB015A01FC0117821682512C71
:1012A000F601E380FE01E3FC8591E3FE8191182FB6
:1012B000EF01882309F4EEC090E00E94540A892BC4
:1012C00021F0C6010E94DA07EBCF153241F4FE018E
:1012D000E3FC1591E3FE1191EF01153281F4C60193
:1012E0000E947E0A97FDD4C0412F50E09C01332715
:1012F00024173507A9F2B6010E94F80ACBC01A32AA
:1013000039F4E3FC1591E3FE1191EF0101E001C016
:1013100000E0F12C20ED210F2A3080F402606F2DC7
:1013200070E080E090E040E20E94B307F62EFE01FC
:10133000E3FC1591E3FE1191EF01ECCF01FF03C037
:10134000F11003C0A7C0FF24FA94183619F01C3618
:1013500051F010C0FE01E3FC1591E3FE1191EF0185
:10136000183641F408600460FE01E3FC1591E3FEC9
:101370001191EF01112309F48DC0612F70E088E60F
:1013800090E00E945D0A892B09F484C000FD07C02B
:10139000F50180809180C50102965C0102C0812C1C
:1013A000912C1E3651F4F6014681578160E070E0C1
:1013B000202FC4010E94A70773CF1336A9F401FDA3
:1013C00002C0FF24F394C6010E947E0A97FD60C00C
:1013D0008114910429F0F4018083C40101964C0129
:1013E000FA94F110F0CF50C01B3559F49E01A401BE
:1013F0006F2DC6010E948508EC01892B09F044C0BD
:101400003EC0C6010E94DA0797FD42C01F3661F157
:1014100028F4143639F1193651F128C0133771F018
:10142000153701F123C08114910429F0F401608281
:10143000C40101964C01FA94FF2071F0C6010E948C
:101440007E0A3C0197FD08C00E94540A892B59F37B
:10145000B601C3010E94F80A81149104A9F0F401B5
:10146000108212C0006203C0006101C00064202F1E
:10147000A4016F2DC6010E94F307811105C0F6017A
:101480008381807329F406C000FD0ACF539408CFEE
:10149000552019F0852D90E002C08FEF9FEFCDB75A
:1014A000DEB7EFE00C94970391110C946F0B803230
:1014B00019F089508550C8F70895FC01059006166B
:1014C00021F00020D9F7C00108953197CF01089588
:1014D000FC010590615070400110D8F780959095FF
:1014E0008E0F9F1F0895FC01615070400190011004
:1014F000D8F7809590958E0F9F1F0895CF93DF9317
:10150000EC012B8120FF33C026FF0AC02F7B2B83E9
:101510008E819F8101969F838E838A8190E029C06E
:1015200022FF0FC0E881F9818081082E000C990B01
:10153000009719F420622B831AC03196F983E8834F
:101540000EC0EA85FB85099597FF09C02B8101969E
:1015500011F080E201C080E1822B8B8308C02E81D4
:101560003F812F5F3F4F3F832E83992702C08FEF2C
:101570009FEFDF91CF9108950F931F93CF93DF9348
:10158000FB01238121FD03C08FEF9FEF2CC022FFC1
:1015900016C046815781248135814217530744F490
:1015A000A081B1819D012F5F3F4F318320838C93B8
:1015B000268137812F5F3F4F3783268314C08B01ED
:1015C000EC01FB010084F185E02D0995892BE1F602
:1015D000D80116968D919C911797019617969C931A
:1015E0008E931697CE01DF91CF911F910F910895A1
:1015F000FB01238120FF12C026FD10C08F3F3FEF6B
:10160000930761F082832F7D2064238326813781B5
:101610002150310937832683992708958FEF9FEF53
:101620000895FA01AA27283051F1203181F1E89478
:101630006F936E7F6E5F7F4F8F4F9F4FAF4FB1E0C5
:101640003ED0B4E03CD0670F781F891F9A1FA11DC0
:10165000680F791F8A1F911DA11D6A0F711D811DC1
:10166000911DA11D20D009F468943F912AE0269F86
:1016700011243019305D3193DEF6CF010895462FE5
:101680004770405D4193B3E00FD0C9F7F6CF462FC6
:101690004F70405D4A3318F0495D31FD405241932F
:1016A00002D0A9F7EACFB4E0A695979587957795EC
:1016B0006795BA95C9F700976105710508959B0173
:1016C000AC010A2E06945795479537952795BA95FC
:1016D000C9F7620F731F841F951FA01D08959927D6
:0816E00088270895F894FFCF5C
:1016E80025686864000A2025642C2025642C2025A0
:1016F80064000A20256C642C20256C642C20256C41
:1017080064000A20256C6C642C20256C6C642C20E9
:10171800256C6C64000A2025662C2025662C202563
:02172800660059
:00000001FF
